:020000040800F2
:1000000050430020518B00082D2F00082F2F00088F
:10001000332F0008372F00083B2F00080000000096
:100020000000000000000000000000003F2F00085A
:10003000412F000800000000A9E50008858800089D
:100040006B8B00086B8B00086B8B000841830008EA
:100050006B8B00086B8B0008D18600086B8B000847
:10006000FD86000827870008518700086B8B000871
:100070006B8B00086B8B00086B8B00086B8B000888
:100080006B8B00086B8B00086B8B00086B8B000878
:100090006B8B00086B8B00086B8B00086B8B000868
:1000A0006B8B00086B8B00086B8B00086B8B000858
:1000B0006B8B00086B8B00086B8B00086B8B000848
:1000C0006B8B00086B8B00086B8B00086B8B000838
:1000D0006B8B0008B98A00086B8B00086B8B0008DB
:1000E0006B8B00081B8300086B8B00086B8B000870
:1000F0006B8B00086B8B00086B8B00086B8B000808
:100100006B8B00086B8B00086B8B00086B8B0008F7
:100110006B8B00086B8B00086B8B00086B8B0008E7
:100120006B8B00086B8B00086B8B00086B8B0008D7
:100130006B8B00086B8B00086B8B00086B8B0008C7
:100140006B8B00086B8B00086B8B00086B8B0008B7
:100150006B8B00086B8B00086B8B00086B8B0008A7
:100160006B8B00086B8B00086B8B00086B8B000897
:100170006B8B00086B8B00086B8B00086B8B000887
:100180006B8B00086B8B000800F002F800F050F851
:100190000AA090E8000C82448344AAF10107DA45E2
:1001A00001D100F045F8AFF2090EBAE80F0013F0E4
:1001B000010F18BFFB1A43F0010318478410010018
:1001C000A4100100103A24BF78C878C1FAD85207A9
:1001D00024BF30C830C144BF04680C6070470000C1
:1001E0000023002400250026103A28BF78C1FBD840
:1001F000520728BF30C148BF0B60704764290EF01A
:10020000818278290EF0BA8273290EF0C28500200F
:1002100070471FB50FF036FB0FF03CF804000020CC
:1002200000210FF083F8401C60601FBD10B510BDA9
:100230000EF0F4FF1146FFF7ECFF02F059FD0FF04E
:100240001BF803B4FFF7F2FF03BC08F0A1FB0000AA
:1002500010B5044601200AF008F8214602200AF0F1
:1002600060FE10BD10B502200AF068FE80B210BD1D
:10027000F0B514461D46059E0B4612E002460BE003
:10028000FE4F3F8803FB0727DFF8F4C3DCF800C00C
:100290002CF81760571CBAB207199742F0DC5F1CA4
:1002A000BBB24F199F42E9DCF0BD2DE9F04704468F
:1002B0000D46904699464B4642462946204603F055
:1002C00076FE03F024F92F4613E026460BE0EB48B8
:1002D000008807FB0060EA49096831F81000E94925
:1002E0000880701C86B204EB0800B042EFDC781C7A
:1002F00087B205EB0900B842E7DCE0484388028892
:100300000021084603F053FEBDE8F08710B5014612
:10031000DA4B1B88D94C648803FB04F2002004E00C
:10032000D74B1B6823F81010401C9042F8D310BD27
:1003300010B5D24B1B8883420BDDD04B5B888B42C0
:1003400007DDCE4B1B8801FB0303CD4C246824F84A
:10035000132010BD2DE9FF4F84B081468A4600204E
:10036000029083460698A0EB09050798A0EB0A06C1
:10037000CDF80490CDF800A0002D01DD012705E0A7
:100380000DB9002702E04FF0FF376D42002E02DD6D
:100390004FF0010806E016B94FF0000802E04FF0F8
:1003A000FF387642B54201DD2C4600E0344600209D
:1003B00003901EE0009A91B2019A90B2119AFFF751
:1003C000B7FF029828440290B3440298A04205DD8A
:1003D0000298001B0290019838440190A34504DD67
:1003E000ABEB040B0098404400900398401C80B293
:1003F0000390611C03988842DCDD08B0BDE8F08FF3
:1004000070B5044600260EF0A7F806469E48007810
:100410009E4909780844142190FBF1F201FB120077
:10042000C5B29A480078142805DA98480078401C2C
:100430009649087009E094480078401C142190FB0C
:10044000F1F201FB12009049087005EB8501904A1A
:1004500002EB01104F2221460EF0E3FB002005EBDA
:1004600085018B4A02EB011181F84F0030460EF0F6
:1004700077F870BDD2B0FF202E902D902C902B904D
:1004800000202A90299000BF00907C484088401EA0
:1004900080B2289079480088401E80B2279002469A
:1004A00000210846289B07F079FB1F207949088026
:1004B00072480088143880B21423024619462890E6
:1004C000184607F0F7FB6D484088143880B2289032
:1004D0006A480088143880B22790684840881438E9
:1004E00080B2269001461420DDE9272307F0E2FBC5
:1004F00062484088143880B203461422114628907E
:10050000104607F0D7FB5D484088143880B2289029
:100510005A480088143880B2279058480088143808
:1005200080B226901421DDE9272307F0C3FB4FF6A4
:10053000FF705849088000205749088057A01821AB
:10054000CDE900104D484088289000EBD070401055
:10055000283880B2269049480088C838279000EB98
:10056000D070C0F34F001823C8222590269907F0B9
:10057000AEFD4EA01021CDE90010404840882890E3
:1005800000EBD070401026903C480088C838279077
:1005900000EBD070C0F34F000B46C822259026997F
:1005A00007F095FD46A01021CDE9001033484088A2
:1005B000289000EBD07040101E3080B226902F485B
:1005C0000088C838279000EBD070C0F34F0010238C
:1005D000C8222590269907F07AFD4FF4FA7008F0AA
:1005E000ADF901F016BD51AA0021394800680CF0A0
:1005F00057FE50909DF84401002841F0098550981D
:10060000002801F005855098401C30B93148007829
:1006100000B9E6E7304850906AE014222E4850991D
:100620000EF0A6FA01202B4908702C4800782C49BE
:1006300009780844282190FBF1F201FB1200C0B2B6
:10064000419027480078282805DA25480078401C82
:100650002349087009E021480078401C282190FBBC
:10066000F1F201FB12001D49087050981D4A016803
:10067000419842F820105098818835E06031002080
:10068000000000208000006C1B0000201A000020E9
:10069000D4230020420000204400002047617465FC
:1006A0007761792053797374656D000053544D332D
:1006B0003246343037202B2055434F532D494900C3
:1006C000496E697469616C697A696E672E2E2E00B5
:1006D000040000202A0000204C31002019000020D6
:1006E00018000020E4220020FE4A419822F8101051
:1006F00051AA0021FC4800680CF01DFBFB48006873
:100700004D90FA4880794C90F848007A4B90F74821
:10071000C0794290F64800784A90F64800784990AF
:10072000F14800680CF029FC00202A9029902D99AE
:100730004C98884208D1F04801782E98814203D124
:100740002C994A98884224D001202A904C982D90C8
:10075000E94800782E904A982C904C9810B14FF4AC
:10076000784000E000200090E4484088401E80B2BD
:100770002890E2480088401E80B22790024600215F
:100780000846289B07F00AFA4A98002801DD012054
:1007900029904A98002805DD2B994998884201D074
:1007A00049982B904C98A8B32A98002801F03084DF
:1007B0004FF6FF70D24908804FF47840D149088045
:1007C000D1A01821CDE90010CC480088A0F5B47064
:1007D000289000EBD070C0F34F000B464FF4B4727A
:1007E0005021279007F073FCCDA01021CDE9001017
:1007F000C2480088A0F5A070289000EBD070C0F32C
:100800004F000B464FF4A0728C21279007F05FFC3D
:1008100001F0FEBBFFE74A9810B12A9800287DD06E
:10082000B548007800287AD137202890B34800884E
:100830006E3880B2279028202690B0484088C8386B
:1008400080B225904A9878B9002000902598401CE5
:1008500080B224902798401C80B223900246249BAB
:1008600026992898FFF704FD00203E9024E00621F9
:10087000259890FBF1F23E99269801FB020080B288
:1008800024900621259890FBF1F23E99269801FBD1
:10089000020080B2239048F230400090DDE927103A
:1008A000084480B222900246DDE923132898FFF71E
:1008B00051FD3E98401C3E903E980628D7DD002012
:1008C0003E9028E048F2304000902798C1172490CD
:1008D00000EB5170C2103E99289801FB020080B2D3
:1008E00021902798C117239000EB5170C2103E99B8
:1008F000289801FB020080B22090DDE92510084411
:1009000080B203462290DDE920022699FFF722FDFE
:100910003E98401C3E903E98082801E0DDE2DDE272
:10092000D0DD4FF6FF700090DDE92510084480B25D
:1009300003462490289A10462699FFF70BFD4FF6A0
:10094000FF700090DDE92510084480B22490DDE9B5
:100950002710084480B22390DDE92510084480B2B6
:1009600022900146DDE923232898FFF7F3FC4FF698
:10097000FF700090DDE92510084480B22490DDE985
:100980002710084480B223902898084480B222900F
:10099000DDE923232699FFF7DDFC4FF4FC6058497D
:1009A00008800020574908803E9026E03E9800EBE2
:1009B00080003C21A1EB4000024661A124906148E7
:1009C0000DF03CFE0621259890FBF1F23E99269809
:1009D00001FB0200083880B224905A481021CDE96A
:1009E000001028981E3880B20B46192223902499B3
:1009F00007F06DFB3E98401C3E903E980628D5DDE2
:100A000051A01021CDE900102698163880B224900C
:100A10002898143880B20B4628222390249907F096
:100A200056FB4FF6E07036490880002035490880B3
:100A30003E9028E03E9800EB80006421A1EB80000E
:100A4000024643A124903F480DF0F8FD0621259869
:100A500090FBF1F23E99269801FB0200083880B223
:100A6000249038481021CDE90010DDE92710084412
:100A7000083080B210231E222390249907F027FB10
:100A80003E98401C3E903E980628D3DD31A01021B0
:100A9000CDE900102698163880B22490DDE92710A1
:100AA0000844143880B2102328222390249907F098
:100AB0000EFB4FF6FF701249088028A01021CDE9E7
:100AC0000010DDE925100844401D80B210232822C3
:100AD00001462490289807F0FAFA22A01021CDE9C7
:100AE000001043E08423002010000020D8220020C2
:100AF00016000020170000201400002060310020A4
:100B0000420000204400002053595354454D2045D5
:100B10004D455247454E43592053544F50210000F4
:100B20005072657373204B45593220746F20726583
:100B3000636F7665722073797374656D00000000D1
:100B4000253264008C2A002054284329000000002C
:100B5000253364004C282529000000002D34307313
:100B6000000000002D323073000000002798249010
:100B700000EBD0704110289808440F3880B22290C2
:100B8000DDE925100844401D80B2102328220146CB
:100B90002390229807F09BFAFBA01021CDE90010CA
:100BA000DDE925100844401D80B22490DDE92710BE
:100BB0000844193880B210231E222390249907F08C
:100BC00086FA4D9864282EDB4D98B0F5167F2ADC06
:100BD0004D986438259948434FF4FA7190FBF1F22F
:100BE000DDE925100844801A4090269940988842F3
:100BF00019DBDDE9251001444098814213DB4FF4F5
:100C000078400090409880B22490DDE92710084495
:100C100080B22390409880B222900146DDE92323E0
:100C20002898FFF797FBD9488088642837DCD74895
:100C30008088259948436421B0FBF1F2DDE9251055
:100C40000844801A249026992498884226DBDDE9FE
:100C5000251001442498814220DB00203E9019E0B9
:100C60004FF6E0700090249880B223903E99289827
:100C70000844001D80B22290249880B221902898C8
:100C8000084480B2209021A90EC9FFF763FB3E986B
:100C900008303E9027993E988842E1DB00BF28212A
:100CA000279890FBF1F03F903F9808B90A203F90B9
:100CB00000203E907AE0B64801783E98084428210A
:100CC00090FBF1F201FB12003D90B14801783E9893
:100CD0000844401C282190FBF1F201FB12003C90DB
:100CE000AC493D9851F820003B903C9851F82000C9
:100CF0003A90DDE93E12289801FB020039903E98B7
:100D0000401C3F9A289900FB021038903B986438A9
:100D1000259948434FF4FA7190FBF1F2DDE9251073
:100D20000844801A37903A986438259948434FF41C
:100D3000FA7190FBF1F2DDE925100844801A369033
:100D400026993798884201DA26983790DDE92510F0
:100D500001443798814203DADDE9251008443790D1
:100D600026993698884201DA26983690DDE92510D2
:100D700001443698814203DADDE9251008443690B3
:100D80004FF4FC600090369880B22490389880B27E
:100D90002390379880B22290399880B2219022A96E
:100DA0000EC9FFF7D7FA3E98401C3E907A4800786B
:100DB000401E3E9988423FF77EAF00203E9076E08D
:100DC000734801783E980844282190FBF1F201FB1A
:100DD00012003D906E4801783E980844401C28213E
:100DE00090FBF1F201FB12003C906C493D9831F808
:100DF00010003B903C9831F810003A90DDE93E122B
:100E0000289801FB020039903E98401C3F9A28998F
:100E100000FB0210389025993B9848436421B0FBB1
:100E2000F1F2DDE925100844801A379025993A98A7
:100E300048436421B0FBF1F2DDE925100844801A33
:100E4000369026993798884201DA26983790DDE95E
:100E5000251001443798814203DADDE92510084462
:100E6000379026993698884201DA26983690DDE93F
:100E7000251001443698814203DADDE92510084443
:100E800036904FF6E0700090369880B224903898F3
:100E900080B22390379880B22290399880B2219006
:100EA00022A90EC9FFF756FA3E98401C3E903A48D8
:100EB0000078401E3E99884282DC4A9868B925989D
:100EC000401C80B224902798401C80B22390024698
:100ED000249B26992898FFF7E8F9E3E33048007847
:100EE000012850D12F480088503880B228904FF602
:100EF000FF702D49088000202C4908802CA010216B
:100F00000B46C822CDE900103721282007F0DFF872
:100F10005098006831903198002802DA31984042A8
:100F200000E0319830900A21309890FBF1F201FBFB
:100F300012002790309890FBF1F0269027980090AF
:100F40003198002801DA1FA001E0AFF2104025908F
:100F500002461DA11F48269B0DF070FB1D48102165
:100F6000CDE900100F480088783880B20B46502237
:100F70003721279007F0ABF85098006864282BDAE7
:100F8000002032903BE087E130730000D82200203F
:100F900019000020E42200201800002084230020F3
:100FA0001400002060310020420000204400002096
:100FB000312E2054454D504552415455524520281C
:100FC000432900002D000000257325642E25642090
:100FD000202000008C2A002050980068B0F5167F71
:100FE00002DD289832900AE0509800686438289909
:100FF00048434FF4FA7190FBF1F080B23290509870
:1010000001684D98814202DD4FF4784001E04FF4D1
:10101000FC6000903298273080B25E2302464B215C
:101020002790282006F0BAFD2899329888420FDAD6
:1010300040F2CF1000902898273080B22790329845
:10104000283080B25E2326904B21279A06F0A6FD19
:10105000FDA010210B46C822CDE900107D212820DB
:1010600007F035F8509880880246FDA12790FE4889
:101070000DF0E4FAFC481021CDE90010FB4800888F
:10108000783880B20B4650227D21279007F01FF858
:1010900050988088289948436421B0FBF1F080B2D1
:1010A000329028993298884201DD289832905098E1
:1010B0008088EF498988884202DD4FF4784001E05A
:1010C0004FF6E07000903298273080B2A423024699
:1010D00091212790282006F061FD289932988842B6
:1010E0000FDA40F2CF1000902898273080B2279076
:1010F0003298283080B2A42326909121279A06F0B6
:101100004DFDDCA010210B46C822CDE90010C32103
:10111000282006F0DCFF5098C0884FF47A7190FBCD
:10112000F1F201FB12000A2190FBF1F02790509898
:10113000C0884FF47A7190FBF1F026900246D2A15C
:10114000C948279B0DF07AFAC7481021CDE9001055
:10115000C6480088783880B20B465022C3212790B9
:1011600006F0B5FF5098C0882899484340F6E441FE
:10117000B0FBF1F080B2329028993298884201DDBC
:101180002898329047F6FF7000903298273080B24E
:10119000EA230246D7212790282006F0FFFC289951
:1011A000329888420FDA40F2CF100090289827300A
:1011B00080B227903298283080B2EA232690D72137
:1011C000279A06F0EBFCB3A010210B46C822CDE90C
:1011D000001040F20911282006F079FF509800898C
:1011E0004FF47A7190FBF1F201FB12000A2190FB9F
:1011F000F1F02790509800894FF47A7190FBF1F04C
:1012000026900246A0A19848279B0DF017FA964811
:101210001021CDE9001095480088783880B20B463F
:10122000502240F20911279006F051FF5098008992
:101230002899484340F6E441B0FBF1F080B2329087
:1012400028993298884201DD289832904FF61F0085
:1012500000903298273080B24FF49873024640F2E3
:101260001D112790282006F099FC28993298884271
:1012700011DA40F2CF1000902898273080B22790E2
:101280003298283080B24FF49873269040F21D11A6
:10129000279A06F083FC05E2844800780228FAD1F8
:1012A0001E202890714800883C3880B22790282062
:1012B00026906E484088E63880B225902A9800280B
:1012C00077D000200090DDE925100844401E80B250
:1012D0002390DDE927100844401E80B22290024688
:1012E000239B2699289806F059FC40F2CF100090D5
:1012F00026981E3080B22390DDE927100844801E16
:1013000080B222902698401C80B221902898401CE0
:1013100080B2209021A90EC906F040FC48F230406E
:1013200063490880DDE92710084480B22390024613
:10133000269B1946289806F0BDFCDDE925100844D7
:1013400080B22390DDE92710084480B22290DDE9C5
:101350002510084480B221900146DDE92223289817
:1013600006F0A8FCDDE92510084480B2034623906E
:10137000289A1046269906F09DFCDDE925100844C0
:1013800080B22390DDE92710084480B2229028988B
:10139000084480B22190DDE92223269906F08AFCD8
:1013A0004FF6FF704249088040F2CF104149088053
:1013B00000E014E040A01021CDE9001027981E386D
:1013C00080B223902698083080B2229028980F305F
:1013D00080B20B462190DDE9221206F078FE002053
:1013E00033900DF0B9F833903B4800784F903B486C
:1013F00000784E904F98062801DD062000E04F98B7
:1014000023904F98062802DD4F98801F00E00020AF
:10141000C0B2229000203E906FE022994E98014485
:101420003E980844142190FBF1F201FB1200349025
:10143000349800EB80002A4901EB001021903E987F
:1014400000EB800127484FE0322E204C494748549A
:1014500020535452454E4754482028252900000067
:1014600025642525202020008C2A002060310020C2
:10147000D8220020332E20444143204F555450554C
:10148000542028504134290025642E2530326456DA
:1014900020200000342E20414443204C4F4F504226
:1014A00041434B2028504135290000001400002002
:1014B0004200002044000020434F4D4D554E49430B
:1014C0004154494F4E205445524D494E414C204DB8
:1014D0004F4E49544F5200001A0000201B000020BC
:1014E000D42300200C2B002000EB01102090219928
:1014F0000DF0FBFA3E98401C3E9023993E9888429E
:101500008BDB23984F9033980DF02AF826982D30D6
:1015100024904FF4FC60FE4908800020FD490880BB
:101520003E9099E03E9800EB8000FB4901EB0010F3
:10153000239023980DF0FDFA22902298302807DCA2
:1015400014A823990DF0D1FA00208DF8180010E0AE
:10155000302214A823990DF064FB00208DF8800040
:1015600030222399303106A80DF05BFB00208DF866
:10157000480014AAE9A1EB480DF060F8E9481021F1
:10158000CDE9001027981E3880B20590249880B2CB
:10159000049028980F3080B20B460390DDE90412C6
:1015A00006F095FD2498143024909DF81800E0B1C1
:1015B00006AADAA1DB480DF041F8DA481021CDE99E
:1015C000001027981E3880B20590249880B20490AD
:1015D00028980F3080B20B460390DDE9041206F024
:1015E00076FD24981430249019E00020009024986F
:1015F000133080B20590DDE927100844801E80B2C8
:101600000490249880B203902898401C80B20290E5
:1016100003A90EC906F0C2FA2498143024900020C1
:10162000009024981D3080B20590DDE92710084411
:10163000801E80B20490249880B203902898401CA9
:1016400080B2029003A90EC906F0A8FA24981E30B1
:1016500024903E98401C3E904F993E988842FFF659
:1016600061AFDDE925100844401E2499884218DD49
:1016700000200090DDE925100844801E80B22390F0
:10168000DDE927100844801E80B22290249880B2A1
:1016900021902898401C80B2209021A90EC906F004
:1016A0007DFA00BF4FF6FF709949088000209949E4
:1016B00008809D4840885A3835903598C82801DA06
:1016C000C8203590509A0A3298A196480CF0B6FF7F
:1016D00094481021CDE90010359880B20B46C822FD
:1016E00001462890142006F0F2FC509800683190D2
:1016F0003198002802DA3198404200E03198309069
:101700004D98002802DA4D98404200E04D982F9005
:101710000A212F9890FBF1F201FB120028902F98DC
:1017200090FBF1F02790309890FBF1F201FB120052
:101730002690309890FBF1F025904D9ADDE9271026
:10174000002A02DAAFF2847301E0AFF61043269A62
:10175000CDE90023CDE902103198002802DAAFF27A
:101760009C7001E0AFF62C402490024672A16D48B7
:10177000259B0CF063FF6B481021CDE900103598D4
:10178000143080B20B464FF4A0720146289014200A
:1017900006F09DFC7148808828905098808827909A
:1017A00002466FA15F48289B0CF048FF5D4810215E
:1017B000CDE900103598283080B20B464FF4A07266
:1017C00001462890142006F082FC429808B16BA0D4
:1017D00000E06BA028904B9808B16AA000E06AA0D6
:1017E0002790024669A14F48289B0CF027FF4D48DF
:1017F0001021CDE9001035983C3080B20B46F02224
:1018000001462890142006F062FC6748007888B9E9
:1018100066A01021CDE90010359880B2289042488A
:101820000088B43880B20B46A0222790289906F091
:101830004EFC2AE05C480078012811D160A01021FC
:10184000CDE90010359880B2289037480088B43828
:1018500080B20B46A0222790289906F038FC14E0AD
:1018600051480078022810D15AA01021CDE900106B
:10187000359880B228902C480088B43880B20B4646
:10188000A0222790289906F022FC4A9800283EDDE5
:101890004FF4A0704890FA20479023480188489858
:1018A000081A289000EBD070C0F34F0046901E48F5
:1018B00041884798081A289000EBD070C0F34F0079
:1018C0004590299810B348F23040009047994598C8
:1018D0000844401E80B22890489946980844401E0B
:1018E00080B227900246289B4599469806F056F903
:1018F0004FF6FF700649088048994698084480B220
:1019000028900246459B194646986DE0CCE065E27A
:1019100042000020440000200C2B0020252D3530F3
:10192000730000008C2A00206031002054696D652E
:101930003A20252D3130730054656D703A2025739F
:1019400025642E256443204C696D69743A20257303
:1019500025642E256443202020000000D82200208A
:101960004C696768743A20252D3364204C696D6991
:10197000743A20252D33642020200000594553005F
:101980004E4F00004F4E00004F4646004C4544313C
:101990003A20252D3373204D7574653A20252D335B
:1019A0007320202000000000140000204D4F44450B
:1019B0003A204355525645205649455720000000CD
:1019C0004D4F44453A2044415348424F41524420F0
:1019D000200000004D4F44453A20434F4D4D204CD0
:1019E0004F4753202000000006F064F947994598BE
:1019F000084480B2289048994698084480B22790BD
:101A000047994598084480B226900146DDE927238E
:101A1000469806F04FF947994598084480B2034626
:101A20002890469A1046459906F044F947994598FA
:101A3000084480B2289048994698084480B227907C
:101A40004698084480B22690DDE92723459906F0A0
:101A500031F948F23040FE490880FEA11820CDE956
:101A6000000145980F3080B2289046985A3080B2D5
:101A700018238C222790289906F029FB45982D30B1
:101A800080B228904899469808440A3880B2279036
:101A900045982D3080B2269046980A3080B2259025
:101AA00026A90EC906F006F94A98012817D148F26E
:101AB000304000904598DC3080B22890469800F580
:101AC000967080B2279045983C3080B22690469818
:101AD000FA3080B2259026A90EC906F05FF848F2C8
:101AE0003040DB49088000204490F1E04498C0EB8E
:101AF000C0014598373000EB810080B2439049998E
:101B00004498884222D14FF6E070D54908804A981F
:101B100002280DD1D3A01021CDE9001046980F3036
:101B200080B20B4614222890439906F0D0FA1FE0A9
:101B3000CDA01021CDE9001046980F3080B20B46A1
:101B400014222890439906F0C2FA11E04FF6FF7074
:101B5000C3490880AFF200211020CDE9000146986A
:101B60000F3080B2102314222890439906F0AFFA68
:101B70004498E0BB4D98002802DA4D98404200E0BE
:101B80004D982F904A9802281ED14998E0B90A2111
:101B90002F9890FBF1F201FB120028902F9890FBF8
:101BA000F1F02790289800904D98002802DAAFF6BF
:101BB000EC3001E0AFF2142026900246ABA1B2480F
:101BC000279B0CF03BFD72E00A212F9890FBF1F26D
:101BD00001FB120028902F9890FBF1F02790289895
:101BE00000904D98002803DAAFF6284002E009E0A3
:101BF000AFF2502026900246A4A1A348279B0CF0E8
:101C00001DFD54E04498012817D14A9802280BD1B1
:101C10004998012808D1A44880880246A3A12890A9
:101C200099480CF00BFD42E09F4880880246A5A130
:101C3000289095480CF002FD39E0449802280CD118
:101C40004C9808B1A5A001E0AFF2C4200246A4A1BF
:101C500028908D480CF0F2FC29E0449803280CD120
:101C6000429808B19DA001E0AFF2E4200246A2A193
:101C7000289085480CF0E2FC19E0449804280FD124
:101C80004A98022807D14998042804D1A0A17E4887
:101C90000CF0D4FC0BE0A4A17B480CF0CFFC06E0D8
:101CA0004498052803D1A6A177480CF0C7FC7648D4
:101CB0001021CDE9001046981E3080B20B46DC2280
:101CC0002890439906F003FA4498401C80B244904F
:101CD00044980628FFF60AAF4A9802287ED1499810
:101CE00010B149980128F9D1469800F5877080B263
:101CF00028904598463080B2279010202690822068
:101D00002590002024904FF6FF70554908802699B1
:101D10002898084480B223900246279B19462898A9
:101D200005F0C8FF25992798084480B2239026998A
:101D30002898084480B2229025992798084480B2B8
:101D400021900146DDE92223289805F0B3FF25996B
:101D50002798084480B203462390DDE927121046F5
:101D600005F0A8FF25992798084480B2239026996A
:101D70002898084480B222902898084480B2219084
:101D8000DDE92223279905F095FF499838BB4D9846
:101D9000962802DA0020249013E04D98B0F5FA7FDF
:101DA00004DD2598801E80B224900AE04D98963874
:101DB0002599891E48434FF4AF7190FBF1F080B232
:101DC00024902498002821DD4FF478400090259934
:101DD00027980844401E80B2239001E018E1B7E044
:101DE000269928980844401E80B222902599279869
:101DF00001442498081A401E80B221902898401C63
:101E000080B2209021A90EC905F0C8FE2598801E39
:101E1000249988421ADD40F2CF1000902599279826
:101E200001442498081A801E80B22390269928988D
:101E30000844401E80B222902798401C80B2219016
:101E40002898401C80B2209021A97DE0DFE00000AE
:101E50004400002053595354454D204D454E5500E4
:101E6000420000203E0000002A000000312E2054D5
:101E7000656D70204C696D697420203A205B257374
:101E800025642E2564435D008C2A0020312E2054C9
:101E9000656D70204C696D697420203A202025738F
:101EA00025642E2564430000D8220020322E204CC9
:101EB00069676874204C696D6974203A205B252D30
:101EC00033645D00322E204C69676874204C696D64
:101ED0006974203A2020252D336400004F4E2000E5
:101EE000332E20456D672053746F70202020203AD8
:101EF00020252D3373000000342E204265657020AC
:101F00004D7574652020203A20252D337300000084
:101F1000352E2043726173682053696D2020203A6A
:101F2000205B5945535D0000352E20437261736874
:101F30002053696D2020203A20204E4F20000000C1
:101F4000362E2045786974000EC905F027FE5EE044
:101F5000F94880880A2802DA0020249013E0F64825
:101F600080885F2804DD2598801E80B224900AE0D6
:101F7000F14880880A382599891E4843552190FBED
:101F8000F1F080B22490249800281EDD4FF6E07016
:101F90000090259927980844401E80B223902699E6
:101FA00028980844401E80B2229025992798014421
:101FB0002498081A401E80B221902898401C80B2B4
:101FC000209021A90EC905F0E9FD2598801E2499CD
:101FD00088421CDD40F2CF100090259927980144DB
:101FE0002498081A801E80B22390269928980844C5
:101FF000401E80B222902798401C80B221902898E1
:10200000401C80B2209021A90EC905F0C7FD00BF79
:1020100000BFFEF7E8BADAB000BF65E159AA0A21AD
:10202000C64800680BF03CF904469DF8640100289E
:102030007ED1002C7CD059AA0021C14800680AF04A
:102040007AFEBD480568B0F8049080791590BC48C8
:1020500000680AF092FF2668002E01DA704200E064
:1020600030461790002D01DA684200E028461690AD
:10207000B4F804A0B3A01490159810B1B3A01490B4
:102080000FE0AE4204DDCA4502DDB3A0149008E0C3
:10209000AE4202DDB7A0149003E0CA4501DDB9A04D
:1020A000149020894FF47A7190FBF1F201FB120039
:1020B0000A2190FBF1F0139020894FF47A7190FB84
:1020C000F1F01290E08890FBF1F201FB12000A217E
:1020D00090FBF1F01190E0884FF47A7190FBF1F0F1
:1020E00010900A21169890FBF1F201FB12000F905C
:1020F000169890FBF1F00E90179890FBF1F201FB0F
:1021000012000D90179890FBF1F00C90DDE911236F
:10211000DDE91310CDE90823CDE90A10DDE90E123F
:102120001098CDE9052904910790002D03DA00E00D
:102130003FE099A200E084A2DDE90C018DE80304F0
:102140000392002E01DA94A000E07FA0034604F180
:102150000A0292491DA80CF071FA0DF1740B0AE005
:1021600000BF8F48008800F040000028F9D01BF81D
:10217000010B8B4988809BF800000028F0D10422D5
:1021800088A145A80CF04DFD4B221DA946A80CF0D6
:1021900048FD00208DF8630184A145A80CF084FC63
:1021A0001390139810B100211398017045A8FEF701
:1021B00027F97F48007801287ED104227DA145A817
:1021C0000CF02FFD4B227D4946A80CF02AFD002083
:1021D0008DF8630175A145A80CF066FC1390139867
:1021E00010B100211398017045A8FEF709F974A1F8
:1021F00072480CF068FC1C901C9830B33A211C9873
:102200000CF048FC074607B300201B901BAA6EA1E8
:10221000781C0CF07BFB59AA0021494800680AF0A1
:102220008AFD45491B98087268491B9808701B98DD
:10223000012803D100206649086002E001206449BA
:1022400008603F4800680AF098FE62A15B480CF005
:102250003AFC1A901A9880B33A211A980CF01AFC9A
:10226000074657B34FF0000800201990189018AB9C
:1022700019AA5BA1781C0CF049FB022806D1199819
:1022800000EB8000189901EB40080BE019AA4EA161
:10229000781C0CF03BFB012804D1199800EB80005E
:1022A0004FEA4008B8F1960F19DBB8F5FA7F16DC53
:1022B00059AA0021224801E016E010E000680AF067
:1022C0003AFD1D48C0F800801FFA88F1464A41EAED
:1022D000020006F050F81A4800680AF04EFE00208E
:1022E000334908704149088098E6A4B028211AA80B
:1022F0000CF070FC142115A80CF06CFC00250020DB
:102300001490139020223A490BA80CF031FC00BF26
:1023100038A00CF087F945F255503C49086004207C
:1023200048604FF4FA6088604AF6AA2008604CF6CC
:10233000CC400860FAE10000D8220020080000200C
:10234000100000204E4F4E4500000000454D455204
:1023500047454E435900000054454D505F414E449F
:102360005F4C494748545F4F5645525F4C494D4971
:102370005400000054454D505F4F5645525F4C4944
:102380004D4954004C494748545F4F5645525F4CA5
:10239000494D4954000000002D000000C8110108FB
:1023A0000010014054583A20000000000D0A0000BF
:1023B0005400002052583A20000000006E310020E6
:1023C000224C454422000000256400001500002036
:1023D000A8824242225345545F414C455254220048
:1023E00025642E25640000000000AA555600002038
:1023F00090F800085B53454E534F525D2054617373
:102400006B20737461727465640D0A0000300040C3
:102410004AF6AA20F84908601021F84800F026FF83
:102420001AA941F825000521F54800F01FFF15A95C
:1024300021F81500681CC5B20A2D02DB0025012019
:1024400014901398401CC0B213901398052876DBA3
:10245000002013900A900990149808B10A2000E017
:102460002846064606B901264FF000080DE01AA8D6
:1024700050F828100A9808440A9015A830F8181047
:1024800009980844099008F10108B045EFDB0A9863
:1024900090FBF6F008900998B0FBF6F01FFA80FA6E
:1024A00040F239310898484340F6E621C1EB202735
:1024B000BAF57A6F01DD4FF47A6A28209AFBF0F0C2
:1024C000C0F1640907AA0021CE4800680AF033FC75
:1024D000CD4880790690CC48C0790590CA480068FC
:1024E0000490C94880880390C8490878012803D11E
:1024F0000021C74A116002E00121C54A1160069817
:1025000048B90498874206DC0398814503DC002023
:10251000BD49C8710590BB4800680AF02EFD0698B9
:1025200018B10220BB4908700DE00498874202DC14
:102530000398814504DD0120B649087003E054E0AA
:102540000020B4490870B3480078B349097888423C
:1025500006D0B0480078B04908700020AF49087034
:102560000BA8AF49097830F811000290029800F0EA
:10257000DFFEAB490978481CC11700EB1171091146
:10258000A0EB0111A64A117005219C4800F06EFED7
:10259000834640F6E4400BFB00F0000B0190A1489D
:1025A000007800EB8000A04901EB80042760A4F8CC
:1025B00004900298E0800198208104F10A0005F05F
:1025C000E9FE2146994800680AF032FF2146984802
:1025D00000680AF02DFF93480078401C062190FB0C
:1025E000F1F201FB12008F49087007AA002185480B
:1025F00000680AF0A0FB8448C07905908148006813
:102600000AF0BBFC83480078022833D18348007865
:102610000C2802DB002081490870059880B97F49A9
:102620000878C11700EB91718910A0EB8101022994
:1026300001DA012100E00021754A083A116003E047
:10264000002073490839086074490878C11700EB05
:1026500091718910A0EB8101022901DB012100E0C9
:1026600000216B4A121F11606C480078401C6B49B6
:10267000087058E067480078012849D16748007819
:10268000182802DB002065490870059888BB63485C
:102690000078022804DA01205D49083908602DE03D
:1026A0005E480078042804DA002059490839086097
:1026B00024E05A480078062804DA012054490839F1
:1026C00008601BE055480078082804DA00205049CB
:1026D0000839086012E0514800780D2804DA01201A
:1026E0004B490839086009E0002049490839086069
:1026F00004E0FFE70020464908390860002044490B
:10270000091F086045480078401C444908700AE0E9
:1027100000203F490839086001204649C1F8A40259
:1027200000203E490870322006F008F970E60EB528
:1027300000BF7CE24048007802285CD002AA002159
:102740003E4800680BF041F83D48006820F01D004D
:102750003B49086002AA00212A4800680AF0EBFA07
:1027600035480078002874D13648007830B9012007
:10277000314908700020344908702DE03148007854
:10278000022813D12048807908B9012000E00020F8
:102790001D49887108468079F0B900201C49083924
:1027A000086001202349C1F8A40215E025480078FB
:1027B000032803D101201449C8710DE02148007895
:1027C000012809D121480078401C032190FBF1F237
:1027D00001FB12001D4908701A480078032809D12E
:1027E0001A480078801C032190FBF1F201FB1200D3
:1027F0001649087098E0DBE00030004000200140FE
:102800000022014010000020D822002015000020E6
:10281000A88242421E0000201F0000201D00002050
:102820001C00002020000020142A002004000020AA
:102830000800002000804242160000200C0000200A
:10284000003C01404A000020170000201400002036
:10285000FFE7F7480078012866D1F648007803289A
:102860000DD1F5480078002805DDF3480078401EBA
:10287000F149087058E00520EF49087054E0ED4830
:10288000007801280DD1EC480078052805DAEA48DF
:102890000078401CE849087046E00020E6490870CE
:1028A00042E0E4480078B8BBE3480078052803D14B
:1028B0000020DF49087037E0DF480078022812D195
:1028C000DE48807908B9012000E00020DB498871EA
:1028D00008468079F8B90020D94908600120D94913
:1028E000C1F8A40220E0D4480078032808D1D348D6
:1028F000C07908B9012000E00020D049C87113E078
:102900000220CB490870CD480068CF490860CB4809
:102910008088CE49088007E0FFE7C6480078022893
:1029200002D10020C2490870FF20C2490870C8487F
:1029300000680AF022FB4FF0FF31C64800680AF039
:1029400077FD0A200BF04EFC02E002200BF04AFC5F
:102950000121C14806F074FA0128F6D00821BF48C9
:1029600006F06EFA0028F0D01021BC4806F068FA94
:102970000028EAD00421B94806F062FA0028E4D021
:1029800005200BF02FFC1D2008F055FDA84800780D
:10299000022805D0B248006840F01D00B049086028
:1029A00000BFB04800680AF075FE0028F9DC3EE17F
:1029B00000240121A84806F043FA012801D101248E
:1029C00013E00821A54806F03BFA08B902240CE000
:1029D0001021A24806F034FA08B9032405E00421C6
:1029E0009E4806F02DFA00B90424002C75DD02AAD9
:1029F0000021974800680AF09EF98F480078A8BB2C
:102A0000012C0DD18D480068401D8C490860084696
:102A10000068B0F5FA7F02DD4FF4FA700860BDE09F
:102A2000022C0BD185480068401F84490860084685
:102A300000689628F3DA96200860AFE0032C0BD1EB
:102A40007E49098889B2884A41EA020005F093FC70
:102A5000012077490870A1E0042CE0D17A48006891
:102A60007649086001207249087097E0FFE77248D4
:102A70000078012832D1012C0BD170488088401D8C
:102A80006E498880084680885F2801DD5F20888045
:102A900084E0022C0BD169488088401F67498880F8
:102AA000084680880A2879DA0A20888076E0032C94
:102AB00009D16249898841F4AA40FDF7C9FB012088
:102AC0005B4908706AE0042C68D1604800885B4963
:102AD000888001205649087060E0A4E056480078DC
:102AE00004285BD1012C01D0032C50D14FF4A077E6
:102AF0004FF0FA085D490988C81B00EBD071C1F39B
:102B00004F055A494988A1EB080000EBD071C1F389
:102B10004F064F4800680AF030FA4FF478400090B2
:102B200006EB0800401E83B2E819401E82B231460F
:102B3000284605F033F84FF6FF704D4908804FF4F2
:102B400078404C4908804CA0182106F15002CDE98C
:102B5000001091B205F11E0290B218234FF4827258
:102B600005F0B5FA49A0102106F18202CDE9001066
:102B700091B205F1140290B210234FF48C7205F05B
:102B8000A6FAC8200BF02EFB72B600BFFEE7022C9F
:102B900001D0042C02D10120254908702C4800687E
:102BA0000AF0EBF94FF0FF312A4800680AF040FCC8
:102BB000032C01D0042C32D102E002200BF012FBD6
:102BC0000121254806F03CF90128F6D008212348C8
:102BD00006F036F90028F0D01021204806F030F930
:102BE0000028EAD004211D4806F02AF90028E4D084
:102BF00005200BF0F7FA1D2008F01DFC18480068AE
:102C000040F01D001649086000BF164800680AF031
:102C100041FD0028F9DCFF200649087006E00A2083
:102C20000BF0E0FA02E002200BF0DCFA00BF81E5D5
:102C3000160000204A00002017000020D8220020A3
:102C4000A08242420080424224000020280000204E
:102C5000100000200400002000000240001002408C
:102C6000003C01400C0000200000AA55603100200B
:102C70004200002044000020435241534820534961
:102C80004D554C4154494F4E000000005379737428
:102C9000656D2077696C6C20637261736820696E62
:102CA0002032732E2E2E000000BF0423804A002104
:102CB000AFF285500AF04EFF05237E4A0021AFF6A1
:102CC000D5100AF047FF06237B4A0021AFF6B94032
:102CD0000AF040FF0723794A002179480AF03AFFB9
:102CE00002200BF07FFAFF200BF0B4F900BFFEE7E3
:102CF000FEB57448006840F47000724908604FF4F3
:102D0000A06005F045FFA82005F0C8FD4FF4E130B4
:102D100005F04CFE00F01EFA00206B49086001F03F
:102D200089FA7D2006F01EF9012860D106F0FEFB2D
:102D300048F23040009065484088401E83B26348A6
:102D40000088401E82B20021084604F027FF4FF49D
:102D500078405F49088048F230405E4908805EA0B4
:102D600018215A4ACDE90010568806EBD672521047
:102D7000283A91B2554A1288A2F1F00707EBD772B0
:102D8000C2F34F001823F02205F0A1F94FF6FF70AF
:102D90004F49088056A010214C4ACDE900105688B2
:102DA00006EBD6725110494A1288A2F1C80707EB08
:102DB000D772C2F34F001023C82205F088F900250E
:102DC0000EE00120404908390860642005F0B6FD96
:102DD00000204C49C1F8A002642005F0AFFD6D1C35
:102DE000042DEEDB4FF4FA7005F0A8FD00BF00F0F3
:102DF000D7F900F073FA05F0C0FC05F0EDFA05F024
:102E0000BDF928BB05F0C1FA044645F2AA51B1EB61
:102E1000144F03D1A0B23C49086006E04FF4BE70E5
:102E200039490860394805F0A6FAFDF71BFA04464F
:102E30005520B0EB142F03D1E0B2334988800DE068
:102E400050203149888045F25050FDF701FA05E0E5
:102E50004FF4BE702C4908605020888000202A4919
:102E60008871C871087208F0FCFE052128480AF034
:102E700049F928490860052127480AF043F92749FC
:102E8000086000200AF01BFC2549086002A9002008
:102E900009F050FE234908600A23234A0021AFF2BB
:102EA000F7100AF057FE09F001F80020FEBD0000FF
:102EB000A8060020A80E0020A8160020A8220020A6
:102EC0007504000888ED00E0A882424260310020CD
:102ED000420000204400002053595354454D2043E4
:102EE0005241534820444554454354454400000052
:102EF0005265626F6F74696E672073797374656D64
:102F00002E2E2E0000804242D82200207C01AA559D
:102F1000B022002004000020C4220020080000206D
:102F20000C00002010000020A8020020704700BF05
:102F3000FEE700BFFEE700BFFEE700BFFEE7704709
:102F4000704700000CB500200190009076480068A2
:102F500040F480307449086000BF7348006800F492
:102F6000003000900198401C0190009818B9019819
:102F7000B0F5A04FF1D16C48006800F4003010B1FA
:102F80000120009001E0002000900098012846D127
:102F900065484030006840F0805063494031086027
:102FA0006248006840F44040604908605E4808306C
:102FB00000685D49083108600846006840F4004038
:102FC00008600846006840F4A05008605848091F8F
:102FD0000860081F006840F08070091F086000BF8B
:102FE0005148006800F000700028F9D040F20570E8
:102FF000504908604C480830006820F003004A49F6
:10300000083108600846006840F00200086000BF10
:1030100045480830006800F00C000828F8D10CBDC5
:1030200010B54548006840F47000434908603E48C8
:10303000006840F001003C49086000203A4908312E
:103040000860394800683D490840374908603C48F5
:10305000091D0860081F006820F48020091F08600F
:10306000002031490C310860FFF76CFF4FF0006021
:1030700031498039086010BD70B50020002202235C
:1030800000240221284D08352D6805F00C0020B1E0
:10309000042806D0082834D107E02A4D2A4E35608E
:1030A00033E02A4D284E35602FE01F4D2D1D2D6831
:1030B000C5F380541C4D2D1D2D6805F03F0154B102
:1030C000224DB5FBF1F5184E361D3668C6F388164D
:1030D00005FB06F209E01B4DB5FBF1F5124E361D5E
:1030E0003668C6F3881605FB06F20F4D2D1D2D68B8
:1030F000C5F301456D1C6B00B2FBF3F5124E356054
:1031000003E0104D104E356000BF00BF064D08357E
:103110002D68C5F303150E4E705D0B4D2D68C5402F
:10312000094E356070BD000000380240007000405C
:1031300008544007003C024088ED00E0FFFFF6FE27
:10314000103000240024F4002C00002000127A002B
:10315000300000201CB50121202006F0ADF84FF40E
:10316000E060009001208DF8040000208DF806003A
:1031700003208DF8050001208DF8070069460748F7
:1031800005F0FCFD4FF48071044805F075FE4FF426
:10319000C061024805F06EFE1CBD00000014024034
:1031A00000B58DB00121202006F086F801210846E7
:1031B00006F082F80121080206F0D8F80121880201
:1031C00006F0D4F880200B9003208DF8300000200A
:1031D0008DF833000BA93D4805F0D0FD20200B9061
:1031E00003208DF8300000208DF833000BA93848FB
:1031F00005F0C4FD0121080206F00DF900214FF48D
:10320000807006F008F90121880206F004F9002117
:103210004FF4806006F0FFF8002007900A900990B4
:103220004FF48030089007A806F048FC0020019079
:103230008DF808008DF809000390059001208DF8A5
:10324000180001A9234806F00AFC01A9224806F04B
:1032500006FC012006F067FC01211E4806F045FC33
:1032600001211D4806F041FC0DB000BD70B50446BB
:103270000D46072301222946204606F076FC20460B
:1032800006F0CFFC00BF0221204606F0EBFD00282F
:10329000F9D0204606F001FD70BD2DE9F04107464A
:1032A000884614460025002609E041463846FFF7C7
:1032B000DDFF0544052005F041FB701CC6B2A642A7
:1032C000F3DBB5FBF4F080B2BDE8F08100140240FE
:1032D00000000240002001400022014000B587B0FC
:1032E0000121084605F0E8FF0121480706F02DF806
:1032F0001020059003208DF8180002208DF81B0087
:1033000005A9244805F03AFD0020019002900390A1
:103310000220049001A9002007F011FF01210020E4
:1033200007F02AFF0021084607F074FF07B000BD30
:1033300070B52DED048B044620460CF092F941EC5B
:10334000180B9FED150B53EC102B51EC180B0CF0D8
:1033500003F841EC180B9FED120B53EC102B51ECC2
:10336000180B0CF091F941EC190B9FED0F0B53EC7E
:10337000102B0BF0F1FF41EC180B51EC180B0CF07B
:1033800043F985B22946002007F044FFBDEC048BC9
:1033900070BD0000000002400000000000408F40AF
:1033A000000000000000B0406666666666660A407F
:1033B0001CB50121112005F07FFF1C20009000208A
:1033C0008DF8040003208DF8050001208DF807001A
:1033D0006946354805F0D2FC0120009002208DF8A6
:1033E00007006946314805F0C9FC1CBD10B504460C
:1033F00014B101202E4908702D480078002837D0DC
:103400001021294805F01CFD78B10821264805F057
:1034100017FD50B10421244805F012FD28B1012107
:10342000224805F00DFD012822D10A2005F086FA78
:1034300000201F49087010211B4805F001FD08B944
:10344000012010BD0821184805F0FAFC08B9022037
:10345000F7E70421144805F0F3FC08B90320F0E76E
:103460000121124805F0ECFC01281BD10420E8E7FB
:1034700010210D4805F0E4FC012813D108210A4869
:1034800005F0DEFC01280DD10421074805F0D8FC29
:10349000012807D10121054805F0D2FC10B901200F
:1034A000034908700020CCE70010024000000240F1
:1034B0004000002001B5BDF800000090BDF80000FC
:1034C000F849088008BD01B5BDF800000090BDF8BE
:1034D0000000F449891C088008BD08B5F148801C2B
:1034E00000880090BDF8000008BDEE4A10804FF043
:1034F000D842A2F88010704710B504462046FFF766
:10350000D9FF052005F0F0F9FFF7E7FF10BDE64809
:103510000089E44908807047E249891C08807047A7
:1035200030B5014601F01F04C1F34513CA0AE50294
:1035300005EB43151544A8B230BD00BF011EA0F134
:103540000102D0B2FAD1704730B504460D46D648D4
:10355000808849F24131884205D0D348808845F2BD
:103560001031884214D1D0494889FFF7A3FF2012B7
:10357000FFF7A9FFE0B2FFF7A6FFCB498889FFF765
:1035800099FF2812FFF79FFFE8B2FFF79CFFABE01F
:10359000C548808846F6040188421DD1C24880791A
:1035A000012804D1C0480088401E001B84B2BE49D7
:1035B0004889FFF77FFF2012FFF785FFE0B2FFF792
:1035C00082FFB9498889FFF775FF2812FFF77BFF53
:1035D000E8B2FFF778FF87E0B348808841F66311CF
:1035E000884247D1B0488079A8B9AF480088401ECA
:1035F000001B84B2AC494889FFF75CFF0020FFF74D
:1036000062FF0020FFF75FFF2012FFF75CFFE0B2D0
:10361000FFF759FF16E0A4494889FFF74BFF201236
:10362000FFF751FFE0B2FFF74EFF9F490988491E9F
:10363000C1F30F20FFF747FF9B490978491EC8B225
:10364000FFF741FF98498889FFF734FF2812FFF7F9
:103650003AFFE8B2FFF737FF93494988491EC1F3A3
:103660000F20FFF730FF90498978491EC8B2FFF755
:103670002AFF39E08C48808845F21051884220D1D9
:1036800089494889FFF716FF2012FFF71CFF86497A
:103690004989491C88B2FFF70DFFE0B2FFF713FF1D
:1036A00081498889FFF706FF2812FFF70CFF7E4942
:1036B0008989491C88B2FFF7FDFEE8B2FFF703FFD6
:1036C00012E079488079012804D177480088401EAB
:1036D000001B84B2744948892146FFF706FF7249EE
:1036E00088892946FFF701FF30BD2DE9F0410546E5
:1036F0000E4600240027A0466B480088A84203DD40
:1037000069484088B04202DC0020BDE8F0813146C3
:103710002846FFF719FF6448808849F24131884202
:1037200011D06148808846F6040188420BD05E487B
:10373000808845F21031884205D05B48808841F688
:103740006311884203D12E20FFF7B4FE0DE05648E6
:10375000808845F21051884204D14FF43850FFF769
:10376000A9FE02E02220FFF7A5FE4F48808849F21B
:103770002031884202D10220FFF7DFFEFFF7ADFEC5
:1037800004464948808841F66311884201D12046A9
:10379000BBE70220FFF7D1FEFFF79FFE0446424839
:1037A000808849F2413188420BD03F48808845F2F9
:1037B0001031884205D03C48808845F2105188423B
:1037C0000AD10220FFF7B9FEFFF787FE8046E7B275
:1037D0004FF6FF7000EA07273348808849F2253109
:1037E000884216D03048808844F23551884210D043
:1037F0002D488088091F88420BD02B4880884BF2C7
:103800000551884205D0284880884CF205518842ED
:1038100001D1204679E72448808849F24131884225
:103820000BD02148808845F21031884205D01E48CF
:10383000808845F21051884207D1E012C002B912C7
:1038400040EA411040EAE8205FE72046FFF768FEC3
:103850005BE700B51448808849F24131884211D0B5
:103860001148808846F6040188420BD00E488088B3
:1038700045F21031884205D00B48808841F663112B
:10388000884203D12920FFF715FE14E006488088FE
:1038900045F21051884209D14FF42450FFF70AFE37
:1038A00009E000007E00006C6031002040F27311DE
:1038B0000720FFF71AFE00BD00B5FD48808849F2D9
:1038C0004131884211D0FA48808846F60401884286
:1038D0000BD0F748808845F21031884205D0F44873
:1038E000808841F66311884203D12820FFF7E2FD6A
:1038F0000EE0EF48808845F21051884204D14FF421
:103900002050FFF7D7FD03E000210720FFF7EDFD72
:1039100000BDF0B5054600240027E5488079012860
:103920000BD1E348808846F60401884205D0E04880
:10393000808841F66311884208D1DD488079F0B96A
:10394000DB48808841F66311884218D1082D15D2D2
:10395000DFE805F00406080A0C0E101206250DE03B
:1039600007250BE0042509E0052507E0012505E012
:10397000002503E0032501E0022500BF00BFCC487D
:10398000808849F24131884217D0C948808846F67C
:103990000401884211D0C648808845F2103188421F
:1039A0000BD0C348808845F21051884205D0C048EA
:1039B000808841F6631188427ED1082D1CD2DFE851
:1039C00005F00406090C0F12151800BF14E044F0AE
:1039D000800411E044F040040EE044F0C0040BE029
:1039E00044F0200408E044F0600405E044F0A00442
:1039F00002E044F0E00400BF00BFAD48808845F21B
:103A00001051884202D14FF4585700E03627A84899
:103A1000808845F2103188420DD0A548808845F253
:103A20001051884207D0A248808841F6631188422D
:103A300001D044F008049E48808846F6040188427C
:103A400001D144F0020421463846FFF74EFD984864
:103A5000808841F6631188421DD004F0200068B1CF
:103A60009348008892494988884214DA9048068829
:103A700040888F490880084646800CE08C480088C2
:103A80008B494988884206DD8948068840888849EC
:103A90000880084646808648808845F21051884252
:103AA00054D183494889FFF705FD0020FFF70BFD3E
:103AB0007F494989491C00E077E088B2FFF7FAFCAA
:103AC0000020FFF700FD7A494989891C88B2FFF779
:103AD000F1FC77490988491EC1F30F20FFF7F3FC79
:103AE00073494989C91C88B2FFF7E4FC7049097819
:103AF000491EC8B2FFF7E7FC6D498889FFF7DAFC79
:103B00000020FFF7E0FC6A498989491C88B2FFF769
:103B1000D1FC0020FFF7D7FC65498989891C88B250
:103B2000FFF7C8FC62494988491EC1F30F20FFF71F
:103B3000CAFC5F498989C91C88B2FFF7BBFC5C4994
:103B40008978491EC8B2FFF7BEFC55E0584948893C
:103B5000FFF7B0FC0020FFF7B6FC0020FFF7B3FC36
:103B600053490988491EC1F30F20FFF7ACFC5049A7
:103B70000978491EC8B2FFF7A6FC4D498889FFF7AE
:103B800099FC0020FFF79FFC0020FFF79CFC4849B0
:103B90004988491EC1F30F20FFF795FC44498978F5
:103BA000491EC8B2FFF78FFC26E0082D1CD2DFE8C3
:103BB00005F004070A0D0F12151844F0300413E045
:103BC00044F0100410E044F020040DE000BF0BE0CE
:103BD00044F0380408E044F0280405E044F01804F8
:103BE00002E044F0080400BF00BF032744F48054FF
:103BF00021463846FFF779FCF0BD30B504460D4646
:103C000029462046FFF7A0FCFFF781FC29480088E1
:103C10002949088030BD70B504460D461646244833
:103C2000808849F24131884205D02148808845F298
:103C30001031884214D11E494889FFF73BFC2012FD
:103C4000FFF741FCE0B2FFF73EFC19498889FFF716
:103C500031FC2812FFF737FCE8B2FFF734FC93E0A1
:103C60001348808845F21051884227D1104948896D
:103C7000FFF720FC2012FFF726FC0D494989491C5B
:103C800088B2FFF717FCE0B2FFF71DFC08498889EE
:103C9000FFF710FC2812FFF716FC05498989491C1B
:103CA00088B2FFF707FCE8B2FFF70DFC6CE00000FC
:103CB00060310020420000208000006CFE488088B7
:103CC00041F66311884228D1FB48807920B9FA482F
:103CD0000088401E001B84B2F7494889FFF7EAFBC1
:103CE0002012FFF7F0FBE0B2FFF7EDFB2012FFF729
:103CF000EAFBE0B2FFF7E7FBEF498889FFF7DAFB61
:103D00002812FFF7E0FBE8B2FFF7DDFB2812FFF710
:103D1000DAFBE8B2FFF7D7FB36E0E748808846F6E3
:103D2000040188421DD1E4488079012804D1E24889
:103D30000088401E001B84B2DF494889FFF7BAFBA8
:103D40002012FFF7C0FBE0B2FFF7BDFBDA4988891C
:103D5000FFF7B0FB2812FFF7B6FBE8B2FFF7B3FBA3
:103D600012E0D5488079012804D1D3480088401E4C
:103D7000001B84B2D04948892146FFF7B6FBCE49E3
:103D800088892946FFF7B1FBCB480089CB490880D9
:103D90004FF0D840A0F8806070BD70B52DED048B59
:103DA0000446BE20FFF786FB0520FFF78CFB20466C
:103DB0000BF057FC41EC190B9FEDC10B53EC102B92
:103DC0000BF062FC41EC180B0BF01EFC85B2284690
:103DD000FFF779FB0120FFF776FBFF20FFF773FB6E
:103DE0000020FFF770FB0020FFF76DFBBDEC048B9C
:103DF00070BD10B50446002C66D1AF498871F02023
:103E000008804FF4A07048800846808849F241310C
:103E100088420BD0A848808846F60401884205D025
:103E2000A548808845F2103188421AD12C20A24939
:103E300008812A2048812B2088810846808846F600
:103E40000401884205D09C48808845F210318842A0
:103E500006D14FF4A070984908804FF4F070488064
:103E6000A1E09548808845F21051884210D14FF466
:103E70003050914908814FF4285048814FF42C501C
:103E800088814FF4F07008804FF4487048808AE0D1
:103E90008948808841F6631188420DD12C208649DB
:103EA00008812B2048812A2088814FF4F0700880F7
:103EB0004FF44870488076E022207F490881202016
:103EC0004881212088816EE001207B4988714FF470
:103ED000A0700880F02048800846808849F241316F
:103EE000884205D07448808845F21031884207D155
:103EF0002C20714908812A2048812B2088813FE0AD
:103F00006D48808846F60401884207D12C206A4912
:103F100008812B2048812A20888131E066488088EA
:103F200045F21051884210D14FF430506249088157
:103F30004FF4285048814FF42C5088814FF448703A
:103F400008804FF4F07048801AE05B48808841F6A2
:103F5000631188420DD12C20574908812A204881BD
:103F60002B2088814FF4487008804FF4F07048800F
:103F700006E02220504908812120488120208881A4
:103F80004D48808846F60401884205D04A4880881A
:103F900045F21031884206D14FF4F070464908804E
:103FA0004FF4A07048800020FFF7B3FC10BD2DE94E
:103FB000F04F86B004460D469046994604EB080043
:103FC000401E86B205EB0900401E87B23A48808841
:103FD00049F24131884215D03748808845F2103186
:103FE00088420FD03448808846F60401884209D0C0
:103FF00031488079012826D12F48808841F6631105
:10400000884220D12C494889FFF754FA2012FFF743
:104010005AFAE0B2FFF757FA3012FFF754FAF0B24B
:10402000FFF751FA24498889FFF744FA2812FFF76D
:104030004AFAE8B2FFF747FA3812FFF744FAF8B243
:10404000FFF741FAC1E01C48808841F663118842BD
:104050003DD119480088A0EB0800001B84B205EB95
:104060000900401E1FFA80F913494889FFF722FA18
:104070002012FFF728FAE0B2FFF725FA04EB080157
:10408000491EC1F30F20FFF71EFA04EB0801491E79
:10409000C8B2FFF718FA08498889FFF70BFA281207
:1040A000FFF711FAE8B2FFF70EFA4FEA2920FFF7FF
:1040B0000AFA09F0FF0007E0603100207E00006C82
:1040C0006666666666660440FFF7FDF97DE0FE48B9
:1040D000808845F21051884244D1FB494889FFF756
:1040E000E9F92012FFF7EFF9F7494989491C88B22D
:1040F000FFF7E0F9E0B2FFF7E6F9F3494989891CD7
:1041000088B2FFF7D7F93012FFF7DDF9EE49498998
:10411000C91C88B2FFF7CEF9F0B2FFF7D4F9EA492B
:104120008889FFF7C7F92812FFF7CDF9E649898991
:10413000491C88B2FFF7BEF9E8B2FFF7C4F9E249BB
:104140008989891C88B2FFF7B5F93812FFF7BBF9E6
:10415000DD498989C91C88B2FFF7ACF9F8B2FFF7CD
:10416000B2F932E0D848807901280ED1AA46BB4680
:10417000D5480088801B401E80B20190D24800883C
:10418000001B401E80B2009003E0A246B34601959A
:104190000097502005905120049052200390532006
:1041A000029051460598FFF7A0F959460498FFF789
:1041B0009CF901990398FFF798F900990298FFF785
:1041C00094F929462046FFF7BFF906B0BDE8F08F05
:1041D00070B504460026BC48058840884543BA4867
:1041E000808846F60401884216D1B74880790128B4
:1041F00012D10020B44988712A2048812B2088815F
:1042000000210846FFF7A0F90120AF4988712B2053
:1042100048812A20888103E000210846FFF794F9AD
:10422000FFF775F9002602E0A8480480761CAE422C
:10423000FAD370BD00B5A1B00020209001217A20F2
:1042400005F03AF80121084605F06EF84FF40040F9
:104250001E9001208DF87C0000208DF87E00022049
:104260008DF87D0001208DF87F001EA9984804F08C
:1042700085FD4CF233701E9002208DF87C000020EA
:104280008DF87E0003208DF87D0001208DF87F00E1
:104290001EA9904804F072FD4FF680701E90022017
:1042A0008DF87C0000208DF87E0003208DF87D00C5
:1042B00001208DF87F001EA9874804F05FFD4FF4B0
:1042C00080501E9002208DF87C0000208DF87E002A
:1042D00003208DF87D0001208DF87F001EA97F4806
:1042E00004F04CFD4FF480501E9002208DF87C00AD
:1042F00000208DF87E0003208DF87D0001208DF8D0
:104300007F001EA9764804F039FD0C220021714877
:1043100004F0BFFD0C2201216E4804F0BAFD0C220E
:1043200004216C4804F0B5FD0C220521694804F015
:10433000B0FD0C220821674804F0ABFD0C220921D6
:10434000644804F0A6FD0C220A21624804F0A1FD95
:104350000C220E215F4804F09CFD0C220F215D48C9
:1043600004F097FD0C2207215B4804F092FD0C221B
:104370000821594804F08DFD0C220921564804F00B
:1043800088FD0C220A21544804F083FD0C220B21E5
:10439000514804F07EFD0C2211464F4804F079FD8F
:1043A0000C220D214C4804F074FD0C220E214A48C9
:1043B00004F06FFD0C220F21474804F06AFD0C2227
:1043C0001146464804F065FD0C221146444804F0AD
:1043D00060FD0F200890002009903C200A900020EA
:1043E0000B900C900D900E900920019000200290EF
:1043F0000820039000200490059006900790062066
:104400000F90002010901190102012900020139017
:1044100015901490169017904FF48050189000202B
:1044200019904FF480401A9000201B9008A81C900F
:1044300001A81D900FA807F022F80121062007F01F
:10444000A9F8322004F07AFA01210020FFF74DF894
:10445000322004F073FA0020FFF74EF81A498880E2
:1044600008468088FF280ADB084680884FF6FF71DF
:10447000884204D014488088B0F5134F7ED1D320F1
:10448000FFF718F8FFF729F80F498880FFF725F89C
:104490000D498880FFF721F80B49888008468088FD
:1044A0004FF6FF7101EA002007498880FFF715F8F1
:1044B000054989880843044988800846808849F26C
:1044C000413188425AD00DE0603100208000006CFC
:1044D00000040240000C02400010024000140240A0
:1044E00000180240BF20FEF7E5FFFEF7F6FFFE4989
:1044F0008880FEF7F2FFFC498880FEF7EEFFFA495C
:104500008880FEF7EAFFF8498880084680884FF6E1
:10451000FF7101EA0020F4498880FEF7DEFFF249CE
:1045200089880843F04988800846808846F6040157
:1045300088427AD0D420FEF7BDFFFEF7CEFFEA49CD
:104540008880FEF7CAFFE8498880FEF7C6FFE64983
:104550008880084680884FF6FF7101EA0020E24912
:104560008880FEF7BAFFE04989880843DE498880E1
:104570000846808845F21031884200E055E054D06A
:104580004FF45A40FEF796FFFEF7A7FFD649888002
:104590004FF45B40FEF78EFFFEF79FFFD249888005
:1045A000084680884FF6FF7101EA0020CE498880D6
:1045B0004FF45C40FEF77EFFFEF78FFFCA49898803
:1045C0000843C949888008468088B0F5004F02D169
:1045D00045F210508880C448808845F210518842C6
:1045E00023D0A120FEF766FFFEF777FFBE49888043
:1045F000FEF773FFBC498880084680884FF6FF713C
:1046000001EA0020B8498880FEF767FFB64989882B
:104610000843B54988800846808845F26171884220
:1046200003D141F66310B0498880AF48808849F2D1
:104630004131884211D0AC48808845F2103188421F
:104640000BD0A948808845F21051884205D0A64871
:10465000808841F6631188421DD1A448006820F08B
:104660000F004FF02041C1F81C010846D0F81C0192
:1046700020F47060C1F81C010846D0F81C0140F01D
:104680000300C1F81C010846D0F81C0140F400707A
:10469000C1F81C0128E09448808846F6040188424D
:1046A00005D0914880884CF2055188421CD18F4832
:1046B000006820F00F004FF02041C1F81C010846AF
:1046C000D0F81C0120F47060C1F81C010846D0F835
:1046D0001C0140F00A00C1F81C010846D0F81C017A
:1046E00040F44060C1F81C017F48818880A009F037
:1046F00099FF7D48808849F2413188427ED1CF20A0
:10470000FEF7D8FE0020FEF7DEFEC120FEF7DBFE3E
:104710003020FEF7D8FEED20FEF7CCFE6420FEF739
:10472000D2FE0320FEF7CFFE1220FEF7CCFE812042
:10473000FEF7C9FEE820FEF7BDFE8520FEF7C3FEAA
:104740001020FEF7C0FE7A20FEF7BDFECB20FEF75C
:10475000B1FE3920FEF7B7FE2C20FEF7B4FE002094
:10476000FEF7B1FE3420FEF7AEFE0220FEF7ABFEF0
:10477000F720FEF79FFE2020FEF7A5FEEA20FEF7B9
:1047800099FE0020FEF79FFE0020FEF79CFEC02051
:10479000FEF790FE1B20FEF796FEC120FEF78AFE74
:1047A0000120FEF790FEC520FEF784FE3020FEF7C4
:1047B0008AFE3020FEF787FEC720FEF77BFEB7207B
:1047C000FEF781FE3620FEF775FE4820FEF77BFEE1
:1047D0003A20FEF76FFE5520FEF775FEB120FEF77A
:1047E00069FE0020FEF76FFE1A20FEF76CFEB62071
:1047F000FEF760FE0A20FEF766FE00E0A5E0A220BC
:10480000FEF761FEF220FEF755FE0020FEF75BFE8C
:104810002620FEF74FFE0120FEF755FEE020FEF7B2
:1048200049FE0F20FEF74FFE2A20FEF74CFE2820FF
:10483000FEF749FE0820FEF746FE0E20FEF743FE77
:104840000820FEF740FE5420FEF73DFEA920FEF7AB
:104850003AFE4320FEF737FE0A20FEF734FE0F2013
:10486000FEF731FE0020FEF72EFE0020FEF72BFEA5
:104870000020FEF728FE0020FEF725FEE120FEF7CF
:1048800019FE0020FEF71FFE1520FEF71CFE172064
:10489000FEF719FE0720FEF716FE1120FEF713FEA5
:1048A0000620FEF710FE2B20FEF70DFE5620FEF729
:1048B0000AFE3C20FEF707FE0520FEF704FE10204E
:1048C000FEF701FE0F20FEF7FEFD3F20FEF7FBFD89
:1048D0003F20FEF7F8FD0F20FEF7F5FD2B20FEF739
:1048E000E9FD00200CE00000603100201C0100A068
:1048F000204C43442049443A25780D0A000000002A
:10490000FEF7E1FD0020FEF7DEFD0120FEF7DBFDF6
:104910003F20FEF7D8FD2A20FEF7CCFD0020FEF751
:10492000D2FD0020FEF7CFFD0020FEF7CCFDEF20EA
:10493000FEF7C9FD1120FEF7BDFD782003F0FEFF54
:104940002920FEF7B7FD03F01DB9FE48808846F622
:10495000040188427ED11120FEF7ACFD142003F043
:10496000EDFFD020FEF7A6FD0720FEF7ACFD4220AC
:10497000FEF7A9FD1D20FEF7A6FDD120FEF79AFD4A
:104980000020FEF7A0FD1A20FEF79DFD0920FEF78E
:104990009AFDD220FEF78EFD0120FEF794FD222025
:1049A000FEF791FDC020FEF785FD1020FEF78BFD80
:1049B0003B20FEF788FD0020FEF785FD0220FEF774
:1049C00082FD1120FEF77FFDC520FEF773FD032059
:1049D000FEF779FDC820FEF76DFD0020FEF773FDA0
:1049E0002520FEF770FD2120FEF76DFD0520FEF766
:1049F0006AFD0020FEF767FD0A20FEF764FD6520D2
:104A0000FEF761FD2520FEF75EFD7720FEF75BFDDA
:104A10005020FEF758FD0F20FEF755FD0020FEF751
:104A200052FDF820FEF746FD0120FEF74CFDFE206A
:104A3000FEF740FD0020FEF746FD0220FEF743FD95
:104A40002020FEF737FD3620FEF734FD0820FEF764
:104A50003AFD00E02AE03A20FEF72CFD5520FEF753
:104A600032FD2B20FEF726FD0020FEF72CFD002056
:104A7000FEF729FD0120FEF726FD3F20FEF723FD6E
:104A80002A20FEF717FD0020FEF71DFD0020FEF78F
:104A90001AFD0120FEF717FDDF20FEF714FD782038
:104AA00003F04CFF2920FEF705FD4CE7A548808860
:104AB00045F21031884240F07C87ED20FEF7FAFC89
:104AC0000120FEF700FDFE20FEF7FDFCEE20FEF7C4
:104AD000F1FCDE20FEF7F7FC2120FEF7F4FCF120CC
:104AE000FEF7E8FC0120FEF7EEFCDF20FEF7E2FC1B
:104AF0001020FEF7E8FCC420FEF7DCFC8F20FEF758
:104B0000E2FCC620FEF7D6FC0020FEF7DCFCE2202B
:104B1000FEF7D9FCE220FEF7D6FCE220FEF7D3FC3C
:104B2000BF20FEF7C7FCAA20FEF7CDFCB020FEF7A1
:104B3000C1FC0D20FEF7C7FC0020FEF7C4FC0D20D1
:104B4000FEF7C1FC0020FEF7BEFC1120FEF7BBFC07
:104B50000020FEF7B8FC1920FEF7B5FC0020FEF798
:104B6000B2FC2120FEF7AFFC0020FEF7ACFC2D20AC
:104B7000FEF7A9FC0020FEF7A6FC3D20FEF7A3FCF3
:104B80000020FEF7A0FC5D20FEF79DFC0020FEF754
:104B90009AFC5D20FEF797FC0020FEF794FCB12004
:104BA000FEF788FC8020FEF78EFC0020FEF78BFCD1
:104BB0008B20FEF788FC0020FEF785FC9620FEF790
:104BC00082FC0020FEF77FFCB220FEF773FC002081
:104BD000FEF779FC0020FEF776FC0220FEF773FC5E
:104BE0000020FEF770FC0320FEF76DFC0020FEF7AE
:104BF0006AFCB320FEF75EFC0020FEF764FC002098
:104C0000FEF761FC0020FEF75EFC0020FEF75BFC77
:104C10000020FEF758FC0020FEF755FC0020FEF7B0
:104C200052FC0020FEF74FFC0020FEF74CFC002059
:104C3000FEF749FC0020FEF746FC0020FEF743FC8F
:104C40000020FEF740FC0020FEF73DFC0020FEF7B0
:104C50003AFC0020FEF737FC0020FEF734FC002071
:104C6000FEF731FC0020FEF72EFC0020FEF72BFCA7
:104C70000020FEF728FC0020FEF725FC0020FEF7B0
:104C800022FC0020FEF71FFCB420FEF713FC8B2053
:104C9000FEF719FC0020FEF716FC9620FEF713FC29
:104CA0000020FEF710FCA120FEF70DFC0020FEF70F
:104CB0000AFCB520FEF7FEFB0220FEF704FC0020F4
:104CC000FEF701FC0320FEF7FEFB0020FEF7FBFBD6
:104CD0000420FEF7F8FB0020FEF7F5FBB620FEF7F8
:104CE000E9FB0020FEF7EFFB0020FEF7ECFBB7200E
:104CF000FEF7E0FB0020FEF7E6FB0020FEF7E3FBFB
:104D00003F20FEF7E0FB0020FEF7DDFB5E20FEF714
:104D1000DAFB0020FEF7D7FB6420FEF7D4FB00206F
:104D2000FEF7D1FB8C20FEF7CEFB0020FEF7CBFB7D
:104D3000AC20FEF7C8FB0020FEF7C5FBDC20FEF729
:104D4000C2FB01E0603100200020FEF7BCFB7020B8
:104D5000FEF7B9FB0020FEF7B6FB9020FEF7B3FB91
:104D60000020FEF7B0FBEB20FEF7ADFB0020FEF7C6
:104D7000AAFBDC20FEF7A7FB0020FEF7A4FBB8206F
:104D8000FEF798FB0020FEF79EFB0020FEF79BFB42
:104D90000020FEF798FB0020FEF795FB0020FEF7B1
:104DA00092FB0020FEF78FFB0020FEF78CFB00201B
:104DB000FEF789FBBA20FEF77DFB2420FEF783FB7C
:104DC0000020FEF780FB0020FEF77DFB0020FEF7B1
:104DD0007AFBC120FEF76EFB2020FEF774FB00205B
:104DE000FEF771FB5420FEF76EFB0020FEF76BFB15
:104DF000FF20FEF768FB0020FEF765FBC220FEF7F0
:104E000059FB0A20FEF75FFB0020FEF75CFB042045
:104E1000FEF759FB0020FEF756FBC320FEF74AFBC6
:104E20003C20FEF750FB0020FEF74DFB3A20FEF73A
:104E30004AFB0020FEF747FB3920FEF744FB002029
:104E4000FEF741FB3720FEF73EFB0020FEF73BFB61
:104E50003C20FEF738FB0020FEF735FB3620FEF73E
:104E600032FB0020FEF72FFB3220FEF72CFB002048
:104E7000FEF729FB2F20FEF726FB0020FEF723FB81
:104E80002C20FEF720FB0020FEF71DFB2920FEF75B
:104E90001AFB0020FEF717FB2620FEF714FB00206C
:104EA000FEF711FB2420FEF70EFB0020FEF70BFBA4
:104EB0002420FEF708FB0020FEF705FB2320FEF769
:104EC00002FB0020FEF7FFFA3C20FEF7FCFA002070
:104ED000FEF7F9FA3620FEF7F6FA0020FEF7F3FAAD
:104EE0003220FEF7F0FA0020FEF7EDFA2F20FEF751
:104EF000EAFA0020FEF7E7FA2C20FEF7E4FA002099
:104F0000FEF7E1FA2920FEF7DEFA0020FEF7DBFAD1
:104F10002620FEF7D8FA0020FEF7D5FA2420FEF767
:104F2000D2FA0020FEF7CFFA2420FEF7CCFA0020B8
:104F3000FEF7C9FA2320FEF7C6FA0020FEF7C3FAEF
:104F4000C420FEF7B7FA6220FEF7BDFA0020FEF794
:104F5000BAFA0520FEF7B7FA0020FEF7B4FA84206B
:104F6000FEF7B1FA0020FEF7AEFAF020FEF7ABFA3A
:104F70000020FEF7A8FA1820FEF7A5FA0020FEF799
:104F8000A2FAA420FEF79FFA0020FEF79CFA182050
:104F9000FEF799FA0020FEF796FA5020FEF793FAF2
:104FA0000020FEF790FA0C20FEF78DFA0020FEF7A5
:104FB0008AFA1720FEF787FA0020FEF784FA952078
:104FC000FEF781FA0020FEF77EFAF320FEF77BFA67
:104FD0000020FEF778FAE620FEF775FA0020FEF7CB
:104FE00072FAC520FEF766FA3220FEF76CFA00204E
:104FF000FEF769FA4420FEF766FA0020FEF763FA2E
:105000006520FEF760FA0020FEF75DFA7620FEF7D5
:105010005AFA0020FEF757FA8820FEF754FA0020CB
:10502000FEF751FAC620FEF745FA2020FEF74BFAAC
:105030000020FEF748FA1720FEF745FA0020FEF799
:1050400042FA0120FEF73FFA0020FEF73CFAC720A3
:10505000FEF730FA0020FEF736FA0020FEF733FAAA
:105060000020FEF730FA0020FEF72DFAC820FEF7E8
:1050700021FA0020FEF727FA0020FEF724FA00208C
:10508000FEF721FA0020FEF71EFAC920FEF712FAF9
:105090000020FEF718FA0020FEF715FA0020FEF7B0
:1050A00012FA0020FEF70FFA0020FEF70CFA00209B
:1050B000FEF709FA0020FEF706FA0020FEF703FAD1
:1050C0000020FEF700FA0020FEF7FDF90020FEF7B1
:1050D000FAF90020FEF7F7F90020FEF7F4F90020B6
:1050E000FEF7F1F90020FEF7EEF90020FEF7EBF9EC
:1050F000E020FEF7DFF91620FEF7E5F90020FEF7C5
:10510000E2F91C20FEF7DFF90020FEF7DCF9212090
:10511000FEF7D9F90020FEF7D6F93620FEF7D3F9CD
:105120000020FEF7D0F94620FEF7CDF90020FEF76B
:10513000CAF95220FEF7C7F90020FEF7C4F964202F
:10514000FEF7C1F90020FEF7BEF97A20FEF7BBF9A1
:105150000020FEF7B8F98B20FEF7B5F90020FEF726
:10516000B2F99920FEF7AFF90020FEF7ACF9A820BC
:10517000FEF7A9F90020FEF7A6F9B920FEF7A3F97A
:105180000020FEF7A0F9C420FEF79DF90020FEF7ED
:105190009AF9CA20FEF797F90020FEF794F9D22079
:1051A000FEF791F90020FEF78EF9D920FEF78BF972
:1051B0000020FEF788F9E020FEF785F90020FEF7D1
:1051C00082F9F320FEF77FF90020FEF77CF9E12059
:1051D000FEF770F91620FEF776F90020FEF773F956
:1051E0001C20FEF770F90020FEF76DF92220FEF773
:1051F0006AF90020FEF767F93620FEF764F900200F
:10520000FEF761F94520FEF75EF90020FEF75BF935
:105210005220FEF758F90020FEF755F96420FEF7FA
:1052200052F90020FEF74FF97A20FEF74CF90020E2
:10523000FEF749F98B20FEF746F90020FEF743F907
:105240009920FEF740F90020FEF73DF9A820FEF76F
:105250003AF90020FEF737F9B920FEF734F90020BB
:10526000FEF731F9C420FEF72EF90020FEF72BF9E6
:10527000CA20FEF728F90020FEF725F9D220FEF714
:1052800022F90020FEF71FF9D820FEF71CF90020B4
:10529000FEF719F9E020FEF716F90020FEF713F9E2
:1052A000F320FEF710F90020FEF70DF9E220FEF7DB
:1052B00001F90520FEF707F90020FEF704F90B209D
:1052C000FEF701F90020FEF7FEF81B20FEF7FBF8C1
:1052D0000020FEF7F8F83420FEF7F5F80020FEF77E
:1052E000F2F84420FEF7EFF80020FEF7ECF84F202C
:1052F000FEF7E9F80020FEF7E6F86120FEF7E3F894
:105300000020FEF7E0F87920FEF7DDF80020FEF738
:10531000DAF88820FEF7D7F80020FEF7D4F89720B7
:10532000FEF7D1F80020FEF7CEF8A620FEF7CBF866
:105330000020FEF7C8F8B720FEF7C5F80020FEF7FA
:10534000C2F8C220FEF7BFF80020FEF7BCF8C72065
:10535000FEF7B9F80020FEF7B6F8D120FEF7B3F853
:105360000020FEF7B0F8D620FEF7ADF80020FEF7DB
:10537000AAF8DD20FEF7A7F80020FEF7A4F8F32036
:10538000FEF7A1F80020FEF79EF8E320FEF792F862
:105390000520FEF798F80020FEF795F80A20FEF7A2
:1053A00092F80020FEF78FF81C20FEF78CF8002002
:1053B000FEF789F83320FEF786F80020FEF783F821
:1053C0004420FEF780F80020FEF77DF85020FEF71D
:1053D0007AF80020FEF777F86220FEF774F80020D4
:1053E000FEF771F87820FEF76EF80020FEF76BF8F4
:1053F0008820FEF768F80020FEF765F89720FEF792
:1054000062F80020FEF75FF8A620FEF75CF80020A7
:10541000FEF759F8B720FEF756F80020FEF753F8CC
:10542000C220FEF750F80020FEF74DF8C720FEF727
:105430004AF80020FEF747F8D120FEF744F8002094
:10544000FEF741F8D520FEF73EF80020FEF73BF8C6
:10545000DD20FEF738F80020FEF735F8F320FEF7E0
:1054600032F80020FEF72FF8E420FEF723F80120A1
:10547000FEF729F80020FEF726F80120FEF723F8B2
:105480000020FEF720F80220FEF71DF80020FEF7AE
:105490001AF82A20FEF717F80020FEF714F83C202F
:1054A000FEF711F80020FEF70EF84B20FEF70BF880
:1054B0000020FEF708F85D20FEF705F80020FEF753
:1054C00002F87420FDF7FFFF0020FDF7FCFF8420A9
:1054D000FDF7F9FF0020FDF7F6FF9320FDF7F3FF3E
:1054E0000020FDF7F0FFA220FDF7EDFF0020FDF703
:1054F000EAFFB320FDF7E7FF0020FDF7E4FFBE2041
:10550000FDF7E1FF0020FDF7DEFFC420FDF7DBFF24
:105510000020FDF7D8FFCD20FDF7D5FF0020FDF7D7
:10552000D2FFD320FDF7CFFF0020FDF7CCFFDD2019
:10553000FDF7C9FF0020FDF7C6FFF320FDF7C3FF0D
:105540000020FDF7C0FFE520FDF7B4FF0020FDF7C8
:10555000BAFF0020FDF7B7FF0020FDF7B4FF0020E1
:10556000FDF7B1FF0220FDF7AEFF0020FDF7ABFF16
:105570002920FDF7A8FF0020FDF7A5FF3C20FDF73F
:10558000A2FF0020FDF79FFF4B20FDF79CFF0020AE
:10559000FDF799FF5D20FDF796FF0020FDF793FFD3
:1055A0007420FDF790FF0020FDF78DFF8420FDF7AC
:1055B0008AFF0020FDF787FF9320FDF784FF00207E
:1055C000FDF781FFA220FDF77EFF0020FDF77BFFA6
:1055D000B320FDF778FF0020FDF775FFBE20FDF733
:1055E00072FF0020FDF76FFFC420FDF76CFF002065
:1055F000FDF769FFCD20FDF766FF0020FDF763FF93
:10560000D320FDF760FF0020FDF75DFFDC20FDF7F4
:105610005AFF0020FDF757FFF320FDF754FF00204D
:10562000FDF751FFE620FDF745FF1120FDF74BFF89
:105630000020FDF748FF3420FDF745FF0020FDF76F
:1056400042FF5620FDF73FFF0020FDF73CFF76208C
:10565000FDF739FF0020FDF736FF7720FDF733FF18
:105660000020FDF730FF6620FDF72DFF0020FDF73D
:105670002AFF8820FDF727FF0020FDF724FF99204F
:10568000FDF721FF0020FDF71EFFBB20FDF71BFFEC
:105690000020FDF718FF9920FDF715FF0020FDF70A
:1056A00012FF6620FDF70FFF0020FDF70CFF5520CD
:1056B000FDF709FF0020FDF706FF5520FDF703FF6A
:1056C0000020FDF700FF4520FDF7FDFE0020FDF75F
:1056D000FAFE4320FDF7F7FE0020FDF7F4FE44201C
:1056E000FDF7F1FE0020FDF7EEFEE720FDF7E2FEFC
:1056F0003220FDF7E8FE0020FDF7E5FE5520FDF71E
:10570000E2FE0020FDF7DFFE7620FDF7DCFE002044
:10571000FDF7D9FE6620FDF7D6FE0020FDF7D3FE8B
:105720006720FDF7D0FE0020FDF7CDFE6720FDF7D6
:10573000CAFE0020FDF7C7FE8720FDF7C4FE00204B
:10574000FDF7C1FE9920FDF7BEFE0020FDF7BBFE70
:10575000BB20FDF7B8FE0020FDF7B5FE9920FDF750
:10576000B2FE0020FDF7AFFE7720FDF7ACFE002073
:10577000FDF7A9FE4420FDF7A6FE0020FDF7A3FEDD
:105780005620FDF7A0FE0020FDF79DFE2320FDF72B
:105790009AFE0020FDF797FE3320FDF794FE0020CF
:1057A000FDF791FE4520FDF78EFE0020FDF78BFEF4
:1057B000E820FDF77FFE0020FDF785FE0020FDF7C5
:1057C00082FE9920FDF77FFE0020FDF77CFE8720FA
:1057D000FDF779FE0020FDF776FE8820FDF773FEC9
:1057E0000020FDF770FE7720FDF76DFE0020FDF72D
:1057F0006AFE6620FDF767FE0020FDF764FE882044
:10580000FDF761FE0020FDF75EFEAA20FDF75BFEBE
:105810000020FDF758FEBB20FDF755FE0020FDF7E8
:1058200052FE9920FDF74FFE0020FDF74CFE66204A
:10583000FDF749FE0020FDF746FE5520FDF743FE2B
:105840000020FDF740FE5520FDF73DFE0020FDF74E
:105850003AFE4420FDF737FE0020FDF734FE4420D9
:10586000FDF731FE0020FDF72EFE5520FDF72BFE43
:105870000020FDF728FEE920FDF71CFEAA20FDF719
:1058800022FE0020FDF71FFE0020FDF71CFE002079
:10589000FDF719FE0020FDF70DFEAA20FDF713FE0F
:1058A000CF20FDF707FE0020FDF70DFE0020FDF7DD
:1058B0000AFE0020FDF707FE0020FDF704FE002091
:1058C000FDF701FE0020FDF7FEFD0020FDF7FBFDCA
:1058D0000020FDF7F8FD0020FDF7F5FD0020FDF7A5
:1058E000F2FD0020FDF7EFFD0020FDF7ECFD0020AC
:1058F000FDF7E9FD0020FDF7E6FD0020FDF7E3FDE3
:105900000020FDF7E0FD0020FDF7DDFDF020FDF7B4
:10591000D1FD0020FDF7D7FD5020FDF7D4FD00207C
:10592000FDF7D1FD0020FDF7CEFD0020FDF7CBFDFA
:10593000F320FDF7BFFD0020FDF7C5FDF920FDF7C1
:10594000B9FD0620FDF7BFFD1020FDF7BCFD2920A5
:10595000FDF7B9FD0020FDF7B6FD3A20FDF7AAFDE1
:105960005520FDF7B0FD1120FDF7A4FD642002F0E5
:10597000E5FF2920FDF79EFD3520FDF79BFD00206A
:10598000FDF7A1FD5120FDF795FDFF20FDF79BFDE3
:105990005320FDF78FFD2C20FDF795FD5520FDF7D9
:1059A00089FD8220FDF78FFD2C20FDF783FD02F09D
:1059B000E9B8FE48808845F2105188427ED15521D1
:1059C0004FF47040FDF791FDAA214FF20100FDF761
:1059D0008CFD52214FF20200FDF787FD08214FF2A6
:1059E0000300FDF782FD01214FF20400FDF77DFD6C
:1059F0000D214FF43040FDF778FD0D214BF20100F1
:105A0000FDF773FD0D214BF20200FDF76EFD342111
:105A10004FF43640FDF769FD34214BF20160FDF78C
:105A200064FD34214BF20260FDF75FFD0D214FF460
:105A30003140FDF75AFD0D214BF20110FDF755FDE8
:105A40000D214BF20210FDF750FD34214FF4374089
:105A5000FDF74BFD34214BF20170FDF746FD34217B
:105A60004BF20270FDF741FD00214FF43240FDF78B
:105A70003CFD00214BF20120FDF737FD00214BF2E8
:105A80000220FDF732FD24214FF43840FDF72DFDB3
:105A900024214BF60100FDF728FD24214BF60200DE
:105AA000FDF723FD01214FF43F40FDF71EFD0F21BF
:105AB0004FF43340FDF719FD0F2100E0FEE34BF2F8
:105AC0000130FDF712FD0F214BF20230FDF70DFD05
:105AD00034214FF43940FDF708FD34214BF6011015
