:020000040800F2
:10000000504300203D870008192B00081B2B0008D7
:100010001F2B0008232B0008272B000800000000DE
:100020000000000000000000000000002B2B000872
:100030002D2B00080000000095E1000871840008E5
:100040005787000857870008578700082D7F00084A
:100050005787000857870008BD82000857870008A7
:10006000E9820008138300083D83000857870008D1
:1000700057870008578700085787000857870008E8
:1000800057870008578700085787000857870008D8
:1000900057870008578700085787000857870008C8
:1000A00057870008578700085787000857870008B8
:1000B00057870008578700085787000857870008A8
:1000C0005787000857870008578700085787000898
:1000D00057870008A586000857870008578700083B
:1000E00057870008077F00085787000857870008D0
:1000F0005787000857870008578700085787000868
:100100005787000857870008578700085787000857
:100110005787000857870008578700085787000847
:100120005787000857870008578700085787000837
:100130005787000857870008578700085787000827
:100140005787000857870008578700085787000817
:100150005787000857870008578700085787000807
:1001600057870008578700085787000857870008F7
:1001700057870008578700085787000857870008E7
:10018000578700085787000800F002F800F050F881
:100190000AA090E8000C82448344AAF10107DA45E2
:1001A00001D100F045F8AFF2090EBAE80F0013F0E4
:1001B000010F18BFFB1A43F001031847700C010030
:1001C000900C0100103A24BF78C878C1FAD85207C1
:1001D00024BF30C830C144BF04680C6070470000C1
:1001E0000023002400250026103A28BF78C1FBD840
:1001F000520728BF30C148BF0B60704764290EF01A
:10020000778078290EF0B08073290EF0B883002033
:1002100070471FB50FF02CF90EF032FE04000020DD
:1002200000210EF079FE401C60601FBD10B510BDAE
:100230000EF0EAFD1146FFF7ECFF02F0F4FB0EF0C2
:1002400011FE03B4FFF7F2FF03BC08F097F90000BA
:1002500070B5044600260DF075FF0646FB48007891
:10026000FB4909780844142190FBF1F201FB1200CC
:10027000C5B2F7480078142805DAF5480078401C24
:10028000F349087009E0F1480078401C142190FB04
:10029000F1F201FB1200ED49087005EB8501ED4A12
:1002A00002EB01104F2221460EF0B1FA002005EBBF
:1002B0008501E84A02EB011181F84F0030460DF04C
:1002C00045FF70BD10B50146E34B1B88E24C6488C6
:1002D00003FB04F2002004E0E04B1B6823F810103D
:1002E000401C9042F8D310BD10B5DB4B1B888342F5
:1002F0000BDDD94B5B888B4207DDD74B1B8801FB9D
:100300000303D64C246824F8132010BD2DE9FF4FB9
:1003100084B081468A460020029083460698A0EB6E
:1003200009050798A0EB0A06CDF80490CDF800A0C7
:10033000002D01DD012705E00DB9002702E04FF097
:10034000FF376D42002E02DD4FF0010806E016B9BE
:100350004FF0000802E04FF0FF387642B54201DD71
:100360002C4600E03446002003901EE0009A91B233
:10037000019A90B2119AFFF7B7FF029828440290B1
:10038000B3440298A04205DD0298001B0290019838
:1003900038440190A34504DDABEB040B00984044C6
:1003A00000900398401C80B20390611C039888421F
:1003B000DCDD08B0BDE8F08F10B50446012009F07F
:1003C0004AFD214602200AF0A2FB10BD10B5022012
:1003D0000AF0AAFB80B210BDF0B514461D46059E7A
:1003E0000B4612E002460BE09B4F3F8803FB0727BA
:1003F000DFF868C2DCF800C02CF81760571CBAB2EE
:1004000007199742F0DC5F1CBBB24F199F42E9DC31
:10041000F0BD2DE9F04704460D46904699464B46FF
:1004200042462946204603F0B8FB02F066FE2F46FE
:1004300013E026460BE08848008807FB00608749E8
:10044000096831F8100086490880701C86B204EBF8
:100450000800B042EFDC781C87B205EB0900B84217
:10046000E7DC7D48438802880021084603F095FBBD
:10047000BDE8F0877CB57D2008F06AFB01285ED1DD
:1004800008F04AFE48F23040009073484088401E11
:1004900083B271480088401E82B20021084607F0EE
:1004A00073F94FF478406F49088048F230406E4944
:1004B00008806EA01821684ACDE90010558805EB28
:1004C000D5725210283A91B2634A1288A2F1F0060E
:1004D00006EBD672C2F34F001823F02207F0EDFBB3
:1004E0004FF6FF705F49088066A010215A4ACDE997
:1004F0000010558805EBD5725110574A1288A2F1A9
:10050000C80606EBD672C2F34F001023C82207F0CC
:10051000D4FB00240DE001205F490860642008F04E
:1005200003F800205D49C1F8A002642007F0FCFF39
:10053000641C042CEFDB4FF4FA7007F0F5FF7CBD70
:1005400010B507F011FC28BB07F015FD044645F275
:10055000AA50B0EB144F03D1A0B25149086006E095
:100560004FF4BE704E4908604E4807F0FAFCFFF7A2
:100570002DFF04465520B0EB142F03D1E0B24849BB
:1005800088800DE050204649888045F25050FFF7A2
:1005900013FF05E04FF4BE70414908605020888089
:1005A00000203F498871C871087210BD45F255504E
:1005B0003D490860042048604FF4FA6088604AF6BC
:1005C000AA2008604CF6CC400860704738B5044655
:1005D00036480078844204D03448047000203449FE
:1005E00008706A460021334800680CF09AF92C48DC
:1005F000C579304800680CF0B6FA022C65D12C4859
:1006000000780C2802DB0020294908707DB92849B0
:100610000878C11700EB91718910A0EB81010229C4
:1006200001DA012100E000211B4A116002E00020F4
:10063000194908601E490878C11700EB91718910AB
:10064000A0EB8101022937DB012136E01B000020ED
:100650001A000020D4230020603100200000002078
:100660008000006C3E00002040000020535953548D
:10067000454D204352415348204445544543544539
:10068000440000005265626F6F74696E6720737971
:100690007374656D2E2E2E00A0824242008042426D
:1006A000D82200207C01AA55003000402300002001
:1006B00022000020100000200021FE4A1160FE48A8
:1006C0000078401CFC49087054E0012C47D1FA48DE
:1006D0000078182802DB0020F74908708DBBF64827
:1006E0000078022804DA0120F249091F08602DE091
:1006F000F1480078042804DA0020EE49091F086058
:1007000024E0ED480078062804DA0120E949091FB1
:1007100008601BE0E8480078082804DA0020E54972
:10072000091F086012E0E44800780D2804DA01206F
:10073000E049091F086009E00020DE49091F086040
:1007400004E0FFE70020DB49091F08600020D949C9
:100750000860D9480078401CD74908700AE000209A
:10076000D449091F08600120D449C1F8A40200201F
:10077000D149087038BDD248007830B90120D1493C
:1007800008700020D04908702DE0CD48007802287C
:1007900013D1CE48807908B9012000E00020CB4970
:1007A000887108468079F0B90020C249091F0860A5
:1007B0000120C249C1F8A40215E0C148007803280D
:1007C00003D10120C149C8710DE0BD48007801285E
:1007D00009D1BF480078401C032190FBF1F201FBD6
:1007E0001200BB490870B6480078032809D1B84800
:1007F0000078801C032190FBF1F201FB1200B44948
:1008000008707047AE48007803280DD1AE480078D4
:10081000002805DDAC480078401EAB49087059E05F
:100820000520A949087055E0A548007801280DD198
:10083000A5480078052805DAA3480078401CA2499D
:10084000087047E00020A049087043E09C48007809
:10085000C0BB9D480078052803D100209949087045
:1008600038E099480078022813D19848807908B96F
:10087000012000E00020954988710846807900BB7E
:1008800000208C49091F086001208C49C1F8A4028E
:1008900020E08D480078032808D18C48C07908B939
:1008A000012000E000208949C87113E00220854939
:1008B00008708648006887490860844880888649AF
:1008C000088007E0FFE77E480078022802D1002078
:1008D0007C49087070472DE9FE43002401217F48C0
:1008E00008F0A4F8012801D1012413E008217C4874
:1008F00008F09CF808B902240CE01021784808F0B0
:1009000095F808B9032405E00421754808F08EF82D
:1009100000B90424002C75DD02AA0021714800688A
:100920000BF0FFFF68480078A8BB012C0DD1674889
:100930000068401D6549086008460068B0F5FA7F08
:1009400002DD4FF4FA700860FAE0022C0BD15F4828
:100950000068401F5D490860084600689628F3DA81
:1009600096200860ECE0032C0BD15849098889B225
:100970005D4A41EA020007F0F4FA0120514908708B
:10098000DEE0042CE0D153480068504908600120A3
:100990004C490870D4E0FFE74B480078012832D179
:1009A000012C0BD149488088401D48498880084661
:1009B00080885F28C8DD5F208880C1E0022C0BD1D1
:1009C00042488088401F41498880084680880A281C
:1009D000BADA0A208880B3E0032C09D13B49898820
:1009E00041F4AA40FFF7E8FC012036490870A7E06F
:1009F000042C06D1384800883449888001203149C8
:100A000008709DE0E1E030480078042850D1012CC6
:100A100001D0032C4DD14FF4A0774FF0FA083349A1
:100A20000988C81B00EBD071C1F34F052F494988D5
:100A3000A1EB080000EBD071C1F34F062948006814
:100A40000CF091F84FF47840009006EB0800401E3F
:100A500083B2E819401E82B23146284606F094FE61
:100A60004FF6FF70224908804FF4784021490880F2
:100A700021A0182106F15002CDE9001091B205F134
:100A80001E0290B218234FF4827207F016F91FA0CD
:100A9000102106F18202CDE9001091B205F1140295
:100AA00090B210234FF48C7207F007F9C8203BE096
:100AB00046E03EE0A4824242220000200080424202
:100AC000460000201600002017000020D822002039
:100AD000140000201C000020200000200000024024
:100AE00000100240100000200000AA5560310020D4
:100AF0003E0000204000002043524153482053490B
:100B00004D554C4154494F4E0000000053797374C9
:100B1000656D2077696C6C20637261736820696E03
:100B20002032732E2E2E00000DF052F972B600BF47
:100B3000FEE7022C01D0042C02D10120FE490870EE
:100B4000FE4800680CF00FF84FF0FF31FC480068D9
:100B50000CF064FA032C01D0042C32D102E0022004
:100B60000DF036F90121F74807F060FF0128F6D0B3
:100B70000821F54807F05AFF0028F0D01021F2486C
:100B800007F054FF0028EAD00421EF4807F04EFF99
:100B90000028E4D005200DF01BF91D200AF041FAD1
:100BA000EA48006840F01D00E849086000BFE848D6
:100BB00000680CF065FB0028F9DCFF20E5490870AF
:100BC00006E00A200DF004F902E002200DF000F921
:100BD000BDE8FE832DE9F34F8BB03727DE48008850
:100BE0006E381FFA80F82824DB484088C83885B260
:100BF0000B9850B900200090681C83B208F10100E6
:100C000082B221463846FFF7E7FB002619E00620AE
:100C100095FBF0F006FB004080B20390062095FBA8
:100C2000F0F006FB004080B2029048F230400090A5
:100C300007EB080082B23846DDE90213FFF766FBD6
:100C4000761C062EE3DD00261CE048F230404FEA19
:100C5000E87108EB5171C91006FB01718AB2CDF839
:100C60000C804FEAE87108EB5171C91006FB017165
:100C7000CDF80880009088B261198BB22146FFF749
:100C800045FB761C082EE0DD4FF6FF7000906019E2
:100C900083B23A4621463846FFF738FB4FF6FF70DD
:100CA0000090601983B207EB080082B2601981B22C
:100CB0003846FFF72BFB4FF6FF7061198BB207EB3D
:100CC00008018AB207EB0801009088B22146FFF7BD
:100CD0001DFB4FF4FC60A14908800020A04908805A
:100CE00000261DE006EB86003C21A1EB40029DA101
:100CF0009D480DF099FA062095FBF0F006FB0040A8
:100D0000083880B2039098481021CDE90010A7F16F
:100D10001E0188B210231922039906F0CEFF761C1B
:100D2000062EDFDD91A01021A4F11602CDE90010FE
:100D300091B2A7F1140290B21023282206F0BDFF51
:100D40004FF6E0708549088000208549088000261C
:100D50001EE006EB86006421A1EB800285A182489B
:100D60000DF062FA062095FBF0F006FB0040083813
:100D700080B203907C481021CDE9001007EB0801F8
:100D8000083188B210231E22039906F096FF761CC4
:100D9000062EDEDD78A01021A4F11602CDE90010A8
:100DA00091B207EB0802143A90B21023282206F001
:100DB00084FF4FF6FF706949088071A01021CDE9CA
:100DC00000106019401D81B210232822384606F019
:100DD00074FF6DA0102108EBD87207EB62020F3A86
:100DE000CDF80C80CDE9001090B26219521D91B27D
:100DF0001023282206F061FF65A010216219521D00
:100E0000CDE9001091B207EB0802193A90B2102315
:100E10001E2206F052FF0C98642821DB0C98B0F5D6
:100E2000167F1DDC0C98643868434FF4FA7190FB10
:100E3000F1F06119081A0A900A98A04210DB6119B2
:100E40000A9881420CDB4FF4784000900A9883B2F4
:100E500007EB080082B20A9881B23846FFF756FACB
:100E60004C48808864282CDC4A4880886843642188
:100E7000B0FBF1F06119081A03900398A0421FDB40
:100E80006119039881421BDB002617E04FF6E070E2
:100E90000090DDF80CC01FFA8CF307EB060C0CF188
:100EA000040C1FFA8CF2DDF80CC01FFA8CF107EB72
:100EB000060C1FFA8CF0FFF729FA08364645E5DBE9
:100EC00000BF282098FBF0F9B9F1000F01D14FF0D5
:100ED0000A0900268DE0304800783044282190FB34
:100EE000F1F201FB120009902B4800783044401CBD
:100EF00090FBF1F201FB120008902849099851F883
:100F000020000790089851F82000069006FB097011
:100F10000590701C00FB09700490079864386843C2
:100F20004FF4FA7190FBF1F06119A1EB000A0698F9
:100F30006438684334E000001600002010000020F0
:100F4000040000200000024000100240003C01406C
:100F50000C00002046000020603100203E000020F0
:100F60004000002025326400142A00205428432920
:100F700000000000253364004C28252900000000F3
:100F80002D343073000000002D323073000000005B
:100F900030730000D822002019000020E422002035
:100FA0004FF4FA7190FBF1F06119A1EB000BA2452F
:100FB00000DAA2466019504501DA04EB050AA345A0
:100FC00000DAA3466019584501DA04EB050B4FF42B
:100FD000FC601FFA8BF30090DDF810C01FFA8CF252
:100FE0001FFA8AF1DDF814C01FFA8CF0FFF78EF9B2
:100FF000761CFE480078401EB0423FF76CAF0026DA
:1010000053E0FB4800783044282190FBF1F201FBCB
:1010100012000990F64800783044401C90FBF1F231
:1010200001FB12000890F349099831F8100007906D
:10103000089831F81000069006FB09700590701CA6
:1010400000FB09700490079868436421B0FBF1F03D
:101050006119A1EB000A069868436421B0FBF1F026
:101060006119A1EB000BA24500DAA24660195045B8
:1010700001DA04EB050AA34500DAA34660195845D6
:1010800001DA04EB050B4FF6E0701FFA8BF30090CA
:10109000DDF810C01FFA8CF21FFA8AF1DDF814C0D7
:1010A0001FFA8CF0FFF732F9761CD0480078401E0A
:1010B000B042A6DC0B9840B9681C83B208F101006D
:1010C00082B221463846FFF7A4F90DB0BDE8F08F93
:1010D0002DE9FC5F06468846C7480088503884B230
:1010E0004FF6FF70C54908800020C5490880C5A09B
:1010F00010210B46C822CDE900103721282006F028
:10110000DCFD3768002F01DA784200E0384681467E
:101110000A2099FBF0F100FB119A99FBF0FBCDF846
:1011200000A0002F01DABCA001E0AFF2BC10024623
:101130005B46BAA1BC480DF077F8BB481021CDE959
:101140000010AD490988783988B210235022372120
:1011500006F0B3FD3068642801DA00250DE0306840
:10116000B0F5167F01DD254607E03068643860433E
:101170004FF4FA7190FBF1F085B23068404502DD22
:101180004FF4784001E04FF4FC60009005F1270037
:1011900082B25E234B21282006F0F6FAA5420CDA33
:1011A00040F2CF1004F127018AB205F12801009026
:1011B00088B25E234B2106F0E7FA9CA010210B4673
:1011C000C822CDE900107D21282006F076FDB288E6
:1011D0009CA195480DF028F893481021CDE9001006
:1011E00085490988783988B2102350227D2106F07C
:1011F00064FDB08860436421B0FBF1F085B2A54284
:1012000000DD2546B08891498988884202DD4FF487
:10121000784001E04FF6E070009005F1270082B2BF
:10122000A4239121282006F0AFFAA5420CDA40F25F
:10123000CF1004F127018AB205F12801009088B28D
:10124000A423912106F0A0FA81A010210B46C82208
:10125000CDE90010C321282006F02FFDF0884FF4BF
:101260007A7190FBF1F201FB12000A2190FBF1FA76
:10127000F0884FF47A7190FBF1FB53465A4679A1FE
:1012800069480CF0D1FF68481021CDE900105A4997
:101290000988783988B210235022C32106F00DFD49
:1012A000F088604340F6E441B0FBF1F085B2A5421E
:1012B00000DD254647F6FF70009005F1270082B259
:1012C000EA23D721282006F05FFAA5420CDA40F283
:1012D000CF1004F127018AB205F12801009088B2ED
:1012E000EA23D72106F050FA61A010210B46C8224C
:1012F000CDE9001040F20911282006F0DEFC30890B
:101300004FF47A7190FBF1F201FB12000A2190FB7D
:10131000F1FA30894FF47A7190FBF1FB53465A464B
:1013200050A141480CF080FF3F481021CDE900104A
:1013300031490988783988B21023502240F20911C6
:1013400006F0BBFC3089604340F6E441B0FBF1F0AD
:1013500085B2A54200DD25464FF61F00009005F13D
:10136000270082B24FF4987340F21D11282006F036
:101370000BFAA5420EDA40F2CF1004F127018AB22F
:1013800005F12801009088B24FF4987340F21D11C6
:1013900006F0FAF9BDE8FC9F2DE9F14FA4B01E2438
:1013A000154800883C3887B2282513484088E6381D
:1013B0001FFA80F92498002817D00020009005EB30
:1013C0000900401E83B2E019401E82B22946204621
:1013D00006F0DAF940F2CF1005F11E0C1FFA8CF37B
:1013E00004EB070CACF1020C4EE09AE01800002070
:1013F0001900002084230020603100203E000020DE
:1014000040000020312E2054454D50455241545546
:1014100052452028432900002D0000002573256433
:101420002E25642020200000142A0020322E204C7B
:101430004947485420535452454E47544820282584
:10144000290000002564252520202000D822002026
:10145000332E20444143204F55545055542028509A
:101460004134290025642E253032645620200000A6
:10147000342E20414443204C4F4F504241434B2097
:1014800028504135290000001FFA8CF205F1010CAB
:101490001FFA8CF104F1010C00901FFA8CF006F099
:1014A00073F948F23040FC490880E01982B22B46BB
:1014B0002946204606F0F4F905EB090083B2E0194D
:1014C00082B205EB090081B2204606F0E9F905EB8E
:1014D000090083B222462946204606F0E1F905EBD1
:1014E00009018BB2E1198AB2E11988B2294606F0E6
:1014F000D7F94FF6FF70E849088040F2CF10E7496E
:101500000880E7A01021A7F11E039AB205F1080395
:10151000CDE9001099B204F10F0398B2102306F040
:10152000CCFB002021900CF00DFE2190E44890F8B7
:1015300000A0E44800782390BAF1060F01DD0620F0
:1015400000E050462090BAF1060F02DDAAF1060035
:1015500000E00020C0B21F904FF0000818E01F9973
:10156000239808444044142190FBF1F201FB12023D
:101570002292229A02EB8202D34B03EB021108EB78
:101580008802D24B03EB02100DF0A5F808F1010818
:1015900020988045E3DBDDF880A021980CF0D6FD93
:1015A00005F12D064FF4FC60BB4908800020BB49C3
:1015B000088080467AE008EB8800C44901EB001BF4
:1015C00058460DF0ACF81E901E98302807DC59469E
:1015D00010A80DF080F800208DF8080010E03022EF
:1015E000594610A80DF013F900208DF87000302234
:1015F0000BF1300102A80DF00AF900208DF8380037
:1016000010AAB3A1B4480CF00FFEB3481021A7F103
:101610001E039AB2CDE90010B1B204F10F0398B2E3
:10162000102306F04AFB14369DF80800A0B102AA68
:10163000A7A1A9480CF0F8FDA7481021A7F11E03A7
:101640009AB2CDE90010B1B204F10F0398B21023A1
:1016500006F033FB143613E0002006F1130C1FFADA
:101660008CF304EB070CACF1020C1FFA8CF2B1B254
:1016700004F1010C00901FFA8CF006F085F8143686
:10168000002006F11D0C1FFA8CF304EB070CACF1E3
:10169000020C1FFA8CF2B1B204F1010C00901FFA97
:1016A0008CF006F071F81E3608F10108D04582DB97
:1016B00005EB0900401EB04214DD002005EB090CCB
:1016C000ACF1020C1FFA8CF304EB070CACF1020C2A
:1016D0001FFA8CF2B1B204F1010C00901FFA8CF0E9
:1016E00006F052F825B0BDE8F08F2DE9F04F89B033
:1016F00005460E46904699464FF6FF7066490880AB
:1017000000206649088075484088A0F15A04C82C1A
:1017100000DAC82405F10A0271A16F480CF084FDBB
:101720006D481021CDE90010A1B21023C822142069
:1017300006F0C3FA2F68002F01DA784200E038463D
:101740008246002E01DA704200E0304683460A20CD
:101750009BFBF0F100FB11B008900A209BFBF0F01E
:1017600007900A209AFBF0F100FB11A006900A20D6
:101770009AFBF0F00590DDE90710002E02DAAFF2D7
:10178000683301E0AFF61803069ACDE90023CDE9EE
:101790000210002F02DAAFF2803001E0AFF6300025
:1017A000024652A14C48059B0CF03EFD4A481021D0
:1017B000CDE9001004F1140081B210234FF4A0729F
:1017C000142006F07AFA52488388AA8851A1424828
:1017D0000CF02AFD40481021CDE9001004F128004A
:1017E00081B210234FF4A072142006F066FAB9F10A
:1017F000000F01D04EA000E04EA00346B8F1000F4C
:1018000001D04DA000E04DA002464DA132480CF0A1
:101810000BFD31481021CDE9001004F13C0081B2EC
:101820001023F022142006F048FA4C48007868B9DA
:101830004BA01021CDE90010A1B2284A1288B43A79
:1018400090B21023A02206F038FA22E04348007834
:1018500001280DD147A01021CDE90010A1B21F4AE7
:101860001288B43A90B21023A02206F026FA10E0B3
:101870003A48007802280CD143A01021CDE900108D
:10188000A1B2164A1288B43A90B21023A02206F0F0
:1018900014FA09B0BDE8F08F3E000020400000209F
:1018A000434F4D4D554E49434154494F4E205445A9
:1018B000524D494E414C204D4F4E49544F5200001D
:1018C0001A0000201B000020D4230020942A0020AE
:1018D000252D353073000000142A002060310020CF
:1018E00054696D653A20252D3130730054656D7053
:1018F0003A20257325642E256443204C696D697454
:101900003A20257325642E25644320202000000002
:10191000D82200204C696768743A20252D33642052
:101920004C696D69743A20252D3364202020000015
:10193000594553004E4F00004F4E00004F464600A1
:101940004C4544313A20252D3373204D7574653A4A
:1019500020252D33732020200000000014000020DB
:101960004D4F44453A204355525645205649455718
:10197000200000004D4F44453A2044415348424F17
:1019800041524420200000004D4F44453A20434F2F
:101990004D4D204C4F475320200000002DE9FF4FB4
:1019A00087B093464FF4A0700690FA200590FE4948
:1019B0000A880699501A00EBD071C1F34F04FA4916
:1019C0004A880599501A00EBD071C1F34F0615985B
:1019D00000285BD048F23040009005983044401E0B
:1019E00083B206982044401E82B23146204605F05C
:1019F000CBFE4FF6FF70ED4908800698204482B276
:101A000033463146204605F04BFF0598304483B2FB
:101A10000698204482B20598304481B2204605F0F1
:101A20003FFF0598304483B222463146204605F0F8
:101A300037FF059931448BB2069921448AB2069941
:101A4000214488B2314605F02BFF48F23040D84996
:101A50000880D8A0182106F10F02CDE9001091B23C
:101A600004F15A0290B218238C2206F026F906F1EE
:101A70002D05ABB2069D25440A3DAAB206F12D05FF
:101A8000A9B204F10A05A8B205F00AFF07980128D7
:101A900010D148F2304006F1DC05ABB204F5967582
:101AA000AAB206F13C05A9B204F1FA050090A8B269
:101AB00005F06AFE48F23040BD4908804FF0000A48
:101AC000DBE0CAEBCA0106F1370000EB810080B20F
:101AD00004900898824520D14FF6E070B349088001
:101AE000079802280CD1B6A01021CDE9001004F10E
:101AF0000F0188B210231422049906F0DEF81DE0CD
:101B0000B0A01021CDE9001004F10F0188B210231C
:101B10001422049906F0D1F810E04FF6FF70A349A3
:101B20000880AFF218201021CDE9001004F10F0158
:101B300088B210231422049906F0BFF8BAF1000FFE
:101B40003CD1BBF1000F02DACBF1000000E05846B7
:101B500003900798022819D10898B8B90A21039868
:101B600090FBF1F201FB120590FBF1F70095BBF140
:101B7000000F02DAAFF2607001E0AFF224200246FB
:101B80003B4691A197480CF04FFB66E00A21039871
:101B900090FBF1F201FB120590FBF1F70095BBF110
:101BA000000F02DAAFF2907001E0AFF2542002466B
:101BB0003B468DA18B480CF037FB4EE0BAF1010F8C
:101BC00013D10798022809D10898012806D18D4819
:101BD00082888DA183480CF027FB3EE089488288EB
:101BE0008FA180480CF020FB37E0BAF1020F0BD137
:101BF0000A9808B190A001E0AFF2C02002468FA180
:101C000078480CF011FB28E0BAF1030F0BD11498BF
:101C100008B189A001E0AFF2DC2002468DA1714835
:101C20000CF002FB19E0BAF1040F0FD1079802285B
:101C300007D10898042804D18CA16A480CF0F4FA62
:101C40000BE090A167480CF0EFFA06E0BAF1050F3F
:101C500003D192A163480CF0E7FA62481021CDE964
:101C6000001004F11E0188B21023DC22049906F052
:101C700024F80AF101001FFA80FABAF1060FFFF604
:101C800020AF079802287ED1089810B10898012843
:101C9000F9D104F5877087B206F146001FFA80F883
:101CA0001020029082254FF000094FF6FF703F4947
:101CB00008800298384482B243464146384605F0CF
:101CC000EFFD08EB050083B20298384482B208EBBE
:101CD000050081B2384605F0E3FD08EB050083B24C
:101CE0003A464146384605F0DBFD08EB05018BB26C
:101CF000029939448AB20299394488B2414605F0C2
:101D0000CFFD0898F0BBBBF1960F00DA10E0BBF5F1
:101D1000FA7F03DDA81E1FFA80F909E0ABF19600F7
:101D2000A91E48434FF4AF7190FBF1F01FFA80F900
:101D3000B9F1000F22DD4FF4784008EB050CACEB55
:101D4000090CACF1020CCC440CF1010C1FFA8CF321
:101D50000090DDF808C0BC44ACF1010C1FFA8CF215
:101D600008EB050CACEB090CACF1010C1FFA8CF183
:101D700007F1010C1FFA8CF005F006FDA81E48457E
:101D800010DD01E09EE0FCE040F2CF1008EB050C16
:101D9000ACEB090CACF1020C1FFA8CF30090DDF8EF
:101DA00008C07FE0ECE00000603100203E00002031
:101DB0004000002053595354454D204D454E550089
:101DC0003E0000002A000000312E2054656D702076
:101DD0004C696D697420203A205B257325642E259B
:101DE00064435D00142A0020312E2054656D70205C
:101DF0004C696D697420203A2020257325642E25B6
:101E000064430000D8220020322E204C6967687499
:101E1000204C696D6974203A205B252D33645D0088
:101E2000322E204C69676874204C696D6974203AC1
:101E30002020252D336400004F4E2000332E2045F6
:101E40006D672053746F70202020203A20252D3399
:101E500073000000342E2042656570204D75746556
:101E60002020203A20252D3373000000352E2043FA
:101E7000726173682053696D2020203A205B5945B8
:101E8000535D0000352E2043726173682053696DE5
:101E90002020203A20204E4F20000000362E2045E2
:101EA00078697400BC44ACF1010C1FFA8CF208F1A3
:101EB000010C1FFA8CF107F1010C1FFA8CF005F0F0
:101EC00063FC5DE0F84880880A2802DA4FF00009D8
:101ED00011E0F54880885F2803DDA81E1FFA80F90D
:101EE00009E0F14880880A38A91E4843552190FB33
:101EF000F1F01FFA80F9B9F1000F22DD4FF6E07022
:101F000008EB050CACEB090CACF1020CCC440CF169
:101F1000010C1FFA8CF30090DDF808C0BC44ACF152
:101F2000010C1FFA8CF208EB050CACEB090CACF1C0
:101F3000010C1FFA8CF107F1010C1FFA8CF005F06F
:101F400023FCA81E48451BDD40F2CF1008EB050C12
:101F5000ACEB090CACF1020C1FFA8CF30090DDF82D
:101F600008C0BC44ACF1010C1FFA8CF208F1010C62
:101F70001FFA8CF107F1010C1FFA8CF005F004FC3C
:101F800000BF0BB0BDE8F08F8CB0FF200990089027
:101F9000079006904FF0000B0020059000BF0090C6
:101FA000C2484088401E83B2C0480088401E82B2AA
:101FB0000021084605F0E8FB1F20BD490880BB480A
:101FC0000088143882B214231946184605F068FCBC
:101FD000B6484088143883B2B4480088143882B2B6
:101FE000B2484088143881B2142005F059FCAF483B
:101FF0004088143883B214221146104605F050FC74
:10200000AA49498814398BB2A849098814398AB277
:10201000A6490988143988B2142105F041FC4FF60D
:10202000FF70A34908800020A2490880A2A01821BF
:102030009E4ACDE900105288049202EBD2725210EF
:10204000283A91B2994A1288C83A039202EBD272A6
:10205000C2F34F001823C82205F02FFE9AA01021CA
:10206000924ACDE900105288049202EBD2725110CC
:102070008E4A1288C83A039202EBD272C2F34F0022
:102080001023C82205F019FE94A01021874ACDE93B
:1020900000105288049202EBD27252101E3291B29A
:1020A000824A1288C83A039202EBD272C2F34F00FE
:1020B0001023C82205F001FE4FF4FA7006F034FA3E
:1020C000F1E00BAA0021894800680AF0DFFE05460E
:1020D0009DF82C0000287DD1002D7BD0681C28B9EC
:1020E0008348007800B9DEE0824D2FE014222946B3
:1020F00080480CF033FB01207D4908707E48007851
:102100007E4909780844282190FBF1F201FB120076
:1021100000F0FF0A79480078282805DA7748007827
:10212000401C7649087009E073480078401C28215B
:1021300090FBF1F201FB12006F49087070492868AA
:1021400041F82A00A8886F4921F81A000BAA00213B
:102150006D4800680AF0E5FB5348D0F800808679A6
:10216000007A0A90504890F80790684804786848C8
:102170000778654800680AF0F6FC4FF0000B002075
:1021800005900898864207D16248017809988142F3
:1021900002D1079884421CD04FF0010B08965D488D
:1021A00000780990079416B14FF4784000E00020C1
:1021B00000903E484088401E83B23C480088401E44
:1021C00082B20021084605F0DFFA002C01DD012073
:1021D000059000E037E0002C03DD0698874200D030
:1021E00006978EB3BBF1000F5CD04FF6FF703049FD
:1021F00008804FF478402F49088047A01821CDE986
:1022000000102A490988A1F5B471049101EBD1713C
:10221000C1F34F0018234FF4B472502105F04DFD67
:1022200043A01021CDE9001020490988A1F5A07133
:10223000049101EBD171C1F34F0010234FF4A07250
:102240008C2105F03AFD2DE0FFE714B1BBF1000F42
:1022500017D03048007820B941462046FEF7BAFC36
:102260000FE02C480078012804D141462846FEF7AB
:102270002FFF06E027480078022802D15846FFF7D2
:102280008BF84B46414628460A9AFFF72EFA002C57
:1022900008DD0598334642463946CDE90090204690
:1022A000FFF77CFB00BF0CE7D82200206031002044
:1022B0003E0000204000002047617465776179206E
:1022C00053797374656D000053544D333246343086
:1022D00037202B2055434F532D494900496E6974CF
:1022E00069616C697A696E672E2E2E0004000020E9
:1022F000270000204C310020190000201800002089
:10230000E42200208423002010000020160000207A
:10231000170000201400002053595354454D204508
:102320004D455247454E43592053544F50210000CC
:102330005072657373204B45593220746F2072655B
:10234000636F7665722073797374656D00000000A9
:10235000DAB000BF65E159AA0A21F94800680AF01D
:1023600095FD04469DF8640100287DD1002C7BD0AA
:1023700059AA0021F34800680AF0D3FAF248056828
:10238000B0F8049080791590EE4800680AF0EBFBF5
:102390002668002E01DA704200E030461790002DCA
:1023A00001DA684200E028461690B4F804A0E7A0DD
:1023B0001490159810B1E7A014900FE0AE4204DD20
:1023C000CA4502DDE6A0149008E0AE4202DDEBA0B3
:1023D000149003E0CA4501DDECA0149020894FF46D
:1023E0007A7190FBF1F201FB12000A2190FBF1F0EF
:1023F000139020894FF47A7190FBF1F01290E088ED
:1024000090FBF1F201FB12000A2190FBF1F0119018
:10241000E0884FF47A7190FBF1F010900A21169841
:1024200090FBF1F201FB12000F90169890FBF1F077
:102430000E90179890FBF1F201FB12000D90179887
:1024400090FBF1F00C90DDE91123DDE91310CDE9EB
:102450000823CDE90A10DDE90E121098CDE905290F
:1024600004910790002D00E040E001DACCA200E0EA
:10247000B7A2DDE90C018DE803040392002E01DA16
:10248000C7A000E0B2A0034604F10A02C5491DA896
:102490000BF0CAFE0DF1740B0AE000BFC2480088C1
:1024A00000F040000028F9D01BF8010BBE498880DD
:1024B0009BF800000028F0D10422BCA145A80CF034
:1024C000A6F94B221DA946A80CF0A1F900208DF811
:1024D0006301B8A145A80CF0DDF81390139810B172
:1024E00000211398017045A8FDF7B2FEB2480078AC
:1024F00001287DD10422B1A145A80CF088F94B2216
:10250000B04946A80CF083F900208DF86301A9A119
:1025100045A80CF0BFF81390139810B10021139840
:10252000017045A8FDF794FEA7A1A6480CF0C1F8DC
:102530001C901C9830B33A211C980CF0A1F8074667
:1025400007B300201B901BAAA1A1781C0BF0D4FF9D
:1025500059AA00217B4800680AF0E3F97A491B98E0
:1025600008729C491B9808701B98012803D1002011
:102570009949086002E001209749086071480068A5
:102580000AF0F1FA95A18F480CF093F81A901A9876
:1025900078B33A211A980CF073F807464FB34FF00E
:1025A000000800201990189018AB19AA8EA1781C69
:1025B0000BF0A2FF022806D1199800EB80001899B1
:1025C00001EB40080BE019AA81A1781C0BF094FFE5
:1025D000012804D1199800EB80004FEA4008B8F1B7
:1025E000960F19DBB8F5FA7F16DC59AA002101E035
:1025F00017E011E0534800680AF093F95248C0F818
:1026000000801FFA88F17A4A41EA020005F0A9FC2D
:102610004C4800680AF0A7FA00206749087075491D
:10262000088098E6A4B02022734901A80CF096F81F
:1026300028211AA80CF0C4F8142115A80CF0C0F831
:10264000002500201490139000BF6CA00BF0E0FD5B
:10265000FDF7ACFF55E14AF6AA206E49086010214B
:102660006D4800F0F9FB1AA941F8250005216B48D7
:1026700000F0F2FB15A921F81500681CC5B20A2D5F
:1026800002DB0025012014901398401CC0B2139067
:102690001398052852DB0020139012901190149883
:1026A00008B10A2000E02846064606B901264FF088
:1026B00000080DE01AA850F828101298084412904B
:1026C00015A830F8181011980844119008F1010865
:1026D000B045EFDB129890FBF6F010901198B0FB2C
:1026E000F6F01FFA80FA40F239311098484340F66C
:1026F000E621C1EB2027BAF57A6F01DD4FF47A6A43
:1027000028209AFBF0F0C0F164090FAA00210D48BF
:1027100000680AF006F90C4880790E900A480068B3
:102720000D90094880880C902A48007809900998F3
:10273000012875D100202849086074E0DAE06FE0D4
:102740000800002010000020D82200204E4F4E45E7
:1027500000000000454D455247454E4359000000DA
:1027600054454D505F414E445F4C494748545F4F7C
:102770005645525F4C494D495400000054454D5058
:102780005F4F5645525F4C494D4954004C494748AC
:10279000545F4F5645525F4C494D4954000000006C
:1027A0002D000000B40D01080010014054583A20DB
:1027B000000000000D0A00005000002052583A208E
:1027C000000000006E310020224C45442200000031
:1027D0002564000015000020A8824242225345547F
:1027E0005F414C455254220025642E2564000000B0
:1027F0000000AA55520000207CF400085B53454EAF
:10280000534F525D205461736B2073746172746511
:10281000640D0A0000300040002001400022014009
:102820000120A54908600E9840B90D98874205DC43
:102830000C98814502DC0020A049C871A0480068BE
:102840000AF091F90E9818B102209E4908700CE028
:102850000D98874202DC0C98814503DD01209949DF
:10286000087002E000209749087001A8964909788D
:1028700030F811000B900B9800F050FB924909784A
:10288000481CC11700EB11710911A0EB01118E4A10
:10289000117005218D4800F0DFFA834640F6E440D0
:1028A0000BFB00F0000B0A908948007800EB8000D9
:1028B000884901EB80042760A4F804900B98E0801D
:1028C0000A98208104F10A0005F05AFB214682484B
:1028D00000680AF0A3FB2146804800680AF09EFBCE
:1028E0007B480078401C062190FBF1F201FB1200AE
:1028F0007749087073480078FDF768FE322005F0CC
:1029000013FEA8E608B500BF67E075480078022806
:1029100061D06A460021734800680AF04CFD724895
:10292000006820F01D00704908606A460021644874
:10293000006809F0F6FF6A48007810B9FDF71BFF40
:1029400005E067480078012801D1FDF75BFFFF2013
:10295000664908705A4800680AF005F94FF0FF31DF
:102960005D4800680AF05AFB0A200BF031FA02E0D9
:1029700002200BF02DFA01215D4806F057F80128DE
:10298000F6D008215B4806F051F80028F0D010215D
:10299000584806F04BF80028EAD00421554806F0C4
:1029A00045F80028E4D005200BF012FA1D2008F0AD
:1029B00038FB4B480078022805D04B48006840F0AF
:1029C0001D004949086000BF464800680AF058FCED
:1029D0000028F9DC01E0FDF77EFF96E700BF042345
:1029E000454A0021AFF2E3000AF0AAFE0523434A5C
:1029F0000021AFF2CF300AF0A3FE0623404A0021A7
:102A0000AFF2B3600AF09CFE07233E4A0021AFF606
:102A100087200AF095FE02200BF0DAF9FF200BF078
:102A20000FF900BFFEE708B53748006840F47000B2
:102A3000354908604FF4A06005F0A0FEA82005F01D
:102A400023FD4FF4E13005F0A7FD00F079F90020F7
:102A50001949086001F0E4F9FDF70CFD00F096F962
:102A600000F032FA05F07FFC05F0ACFAFDF768FDE6
:102A700008F0EDFE052125480AF03AF916490860EC
:102A8000052123480AF034F91449086000200AF0AF
:102A90000CFC144908606946002009F041FE084911
:102AA00008600A231B4A0021AFF2CF000AF048FE5B
:102AB00008F0F2FF002008BDA8824242D822002080
:102AC00010000020250000202400002000200140EC
:102AD00026000020D4300020040000200800002040
:102AE000160000200C000020003C014046000020A1
:102AF0000000024000100240A8060020A80E00209E
:102B0000A8160020A822002088ED00E0B0220020B6
:102B1000C4220020A8020020704700BFFEE700BFCB
:102B2000FEE700BFFEE700BFFEE77047704700000A
:102B30000CB50020019000907648006840F4803089
:102B40007449086000BF7348006800F400300090CA
:102B50000198401C0190009818B90198B0F5A04F59
:102B6000F1D16C48006800F4003010B101200090F1
:102B700001E0002000900098012846D165484030CF
:102B8000006840F080506349403108606248006846
:102B900040F44040604908605E48083000685D4984
:102BA000083108600846006840F4004008600846A4
:102BB000006840F4A05008605848091F0860081FCA
:102BC000006840F08070091F086000BF514800682D
:102BD00000F000700028F9D040F2057050490860FC
:102BE0004C480830006820F003004A49083108606A
:102BF0000846006840F00200086000BF4548083001
:102C0000006800F00C000828F8D10CBD10B545484C
:102C1000006840F47000434908603E48006840F096
:102C200001003C49086000203A49083108603948F1
:102C300000683D490840374908603C48091D086064
:102C4000081F006820F48020091F08600020314917
:102C50000C310860FFF76CFF4FF00060314980399C
:102C6000086010BD70B5002000220223002402215C
:102C7000284D08352D6805F00C0020B1042806D039
:102C8000082834D107E02A4D2A4E356033E02A4D1A
:102C9000284E35602FE01F4D2D1D2D68C5F3805443
:102CA0001C4D2D1D2D6805F03F0154B1224DB5FB83
:102CB000F1F5184E361D3668C6F3881605FB06F288
:102CC00009E01B4DB5FBF1F5124E361D3668C6F313
:102CD000881605FB06F20F4D2D1D2D68C5F3014525
:102CE0006D1C6B00B2FBF3F5124E356003E0104D26
:102CF000104E356000BF00BF064D08352D68C5F386
:102D000003150E4E705D0B4D2D68C540094E3560A4
:102D100070BD0000003802400070004008544007B9
:102D2000003C024088ED00E0FFFFF6FE103000247A
:102D30000024F4002800002000127A002C0000205B
:102D40001CB50121202006F0ADF84FF4E0600090A2
:102D500001208DF8040000208DF8060003208DF876
:102D6000050001208DF807006946074805F0FCFDC5
:102D70004FF48071044805F075FE4FF4C0610248BD
:102D800005F06EFE1CBD00000014024000B58DB0C1
:102D90000121202006F086F80121084606F082F87D
:102DA0000121080206F0D8F80121880206F0D4F8C3
:102DB00080200B9003208DF8300000208DF8330028
:102DC0000BA93D4805F0D0FD20200B9003208DF885
:102DD000300000208DF833000BA9384805F0C4FD01
:102DE0000121080206F00DF900214FF4807006F071
:102DF00008F90121880206F004F900214FF48060EF
:102E000006F0FFF8002007900A9009904FF48030F8
:102E1000089007A806F048FC002001908DF80800F3
:102E20008DF809000390059001208DF8180001A984
:102E3000234806F00AFC01A9224806F006FC0120FE
:102E400006F067FC01211E4806F045FC01211D48E3
:102E500006F041FC0DB000BD70B504460D460723D9
:102E600001222946204606F076FC204606F0CFFCDB
:102E700000BF0221204606F0EBFD0028F9D02046D5
:102E800006F001FD70BD2DE9F04107468846144665
:102E90000025002609E041463846FFF7DDFF0544DE
:102EA000052005F041FB701CC6B2A642F3DBB5FB62
:102EB000F4F080B2BDE8F08100140240000002404E
:102EC000002001400022014000B587B001210846E2
:102ED00005F0E8FF0121480706F02DF810200590C5
:102EE00003208DF8180002208DF81B0005A9244846
:102EF00005F03AFD0020019002900390022004901A
:102F000001A9002007F011FF0121002007F02AFF8E
:102F10000021084607F074FF07B000BD70B52DED25
:102F2000048B044620460CF092F941EC180B9FEDFF
:102F3000150B53EC102B51EC180B0CF003F841EC73
:102F4000180B9FED120B53EC102B51EC180B0CF0DF
:102F500091F941EC190B9FED0F0B53EC102B0BF07B
:102F6000F1FF41EC180B51EC180B0CF043F985B252
:102F70002946002007F044FFBDEC048B70BD000023
:102F8000000002400000000000408F4000000000F0
:102F90000000B0406666666666660A401CB50121A0
:102FA000112005F07FFF1C20009000208DF8040008
:102FB00003208DF8050001208DF80700694635488B
:102FC00005F0D2FC0120009002208DF80700694630
:102FD000314805F0C9FC1CBD10B5044614B10120F0
:102FE0002E4908702D480078002837D01021294834
:102FF00005F01CFD78B10821264805F017FD50B1F9
:103000000421244805F012FD28B10121224805F0D1
:103010000DFD012822D10A2005F086FA00201F4963
:10302000087010211B4805F001FD08B9012010BDF2
:103030000821184805F0FAFC08B90220F7E7042136
:10304000144805F0F3FC08B90320F0E70121124809
:1030500005F0ECFC01281BD10420E8E710210D4805
:1030600005F0E4FC012813D108210A4805F0DEFC34
:1030700001280DD10421074805F0D8FC012807D10B
:103080000121054805F0D2FC10B901200349087060
:103090000020CCE700100240000002403C0000206D
:1030A00001B5BDF800000090BDF80000F8490880A7
:1030B00008BD01B5BDF800000090BDF80000F4495E
:1030C000891C088008BD08B5F148801C0088009064
:1030D000BDF8000008BDEE4A10804FF0D842A2F8BB
:1030E0008010704710B504462046FFF7D9FF052031
:1030F00005F0F0F9FFF7E7FF10BDE6480089E44965
:1031000008807047E249891C0880704730B5014645
:1031100001F01F04C1F34513CA0AE50205EB43158C
:103120001544A8B230BD00BF011EA0F10102D0B20B
:10313000FAD1704730B504460D46D648808849F22A
:103140004131884205D0D348808845F21031884209
:1031500014D1D0494889FFF7A3FF2012FFF7A9FF38
:10316000E0B2FFF7A6FFCB498889FFF799FF281245
:10317000FFF79FFFE8B2FFF79CFFABE0C5488088F0
:1031800046F6040188421DD1C2488079012804D145
:10319000C0480088401E001B84B2BE494889FFF722
:1031A0007FFF2012FFF785FFE0B2FFF782FFB949EA
:1031B0008889FFF775FF2812FFF77BFFE8B2FFF75A
:1031C00078FF87E0B348808841F66311884247D191
:1031D000B0488079A8B9AF480088401E001B84B26F
:1031E000AC494889FFF75CFF0020FFF762FF002031
:1031F000FFF75FFF2012FFF75CFFE0B2FFF759FF18
:1032000016E0A4494889FFF74BFF2012FFF751FF52
:10321000E0B2FFF74EFF9F490988491EC1F30F2016
:10322000FFF747FF9B490978491EC8B2FFF741FFE6
:1032300098498889FFF734FF2812FFF73AFFE8B270
:10324000FFF737FF93494988491EC1F30F20FFF765
:1032500030FF90498978491EC8B2FFF72AFF39E04C
:103260008C48808845F21051884220D1894948898C
:10327000FFF716FF2012FFF71CFF86494989491CFA
:1032800088B2FFF70DFFE0B2FFF713FF814988898D
:10329000FFF706FF2812FFF70CFF7E498989491CBA
:1032A00088B2FFF7FDFEE8B2FFF703FF12E07948AE
:1032B0008079012804D177480088401E001B84B221
:1032C000744948892146FFF706FF724988892946D3
:1032D000FFF701FF30BD2DE9F04105460E46002401
:1032E0000027A0466B480088A84203DD6948408853
:1032F000B04202DC0020BDE8F08131462846FFF7ED
:1033000019FF6448808849F24131884211D06148F0
:10331000808846F6040188420BD05E48808845F2DA
:103320001031884205D05B48808841F6631188429D
:1033300003D12E20FFF7B4FE0DE05648808845F2F9
:103340001051884204D14FF43850FFF7A9FE02E033
:103350002220FFF7A5FE4F48808849F2203188429D
:1033600002D10220FFF7DFFEFFF7ADFE0446494819
:10337000808841F66311884201D12046BBE70220D4
:10338000FFF7D1FEFFF79FFE04464248808849F2CE
:10339000413188420BD03F48808845F21031884245
:1033A00005D03C48808845F2105188420AD102205D
:1033B000FFF7B9FEFFF787FE8046E7B24FF6FF70D2
:1033C00000EA07273348808849F22531884216D021
:1033D0003048808844F23551884210D02D4880888A
:1033E000091F88420BD02B4880884BF20551884238
:1033F00005D0284880884CF20551884201D12046EA
:1034000079E72448808849F2413188420BD021482D
:10341000808845F21031884205D01E48808845F2E8
:103420001051884207D1E012C002B91240EA41109F
:1034300040EAE8205FE72046FFF768FE5BE700B55B
:103440001448808849F24131884211D0114880885F
:1034500046F6040188420BD00E48808845F21031B0
:10346000884205D00B48808841F66311884203D119
:103470002920FFF715FE14E00648808845F2105118
:10348000884209D14FF42450FFF70AFE09E00000FA
:103490007E00006C6031002040F273110720FFF7BE
:1034A0001AFE00BD00B5FD48808849F241318842CE
:1034B00011D0FA48808846F6040188420BD0F748BC
:1034C000808845F21031884205D0F448808841F662
:1034D0006311884203D12820FFF7E2FD0EE0EF4898
:1034E000808845F21051884204D14FF42050FFF7F4
:1034F000D7FD03E000210720FFF7EDFD00BDF0B58B
:10350000054600240027E548807901280BD1E348CF
:10351000808846F60401884205D0E048808841F65C
:103520006311884208D1DD488079F0B9DB48808892
:1035300041F66311884218D1082D15D2DFE805F055
:103540000406080A0C0E101206250DE007250BE0F4
:10355000042509E0052507E0012505E0002503E035
:10356000032501E0022500BF00BFCC48808849F256
:103570004131884217D0C948808846F60401884204
:1035800011D0C648808845F2103188420BD0C3481C
:10359000808845F21051884205D0C048808841F6A5
:1035A000631188427ED1082D1CD2DFE805F00406A5
:1035B000090C0F12151800BF14E044F0800411E04C
:1035C00044F040040EE044F0C0040BE044F020045A
:1035D00008E044F0600405E044F0A00402E044F098
:1035E000E00400BF00BFAD48808845F2105188421A
:1035F00002D14FF4585700E03627A848808845F29A
:10360000103188420DD0A548808845F2105188427B
:1036100007D0A248808841F66311884201D044F067
:1036200008049E48808846F60401884201D144F08F
:10363000020421463846FFF74EFD9848808841F63F
:10364000631188421DD004F0200068B193480088BF
:1036500092494988884214DA9048068840888F4900
:103660000880084646800CE08C4800888B494988D1
:10367000884206DD894806884088884908800846CF
:1036800046808648808845F21051884254D183494B
:103690004889FFF705FD0020FFF70BFD7F494989A9
:1036A000491C00E077E088B2FFF7FAFC0020FFF742
:1036B00000FD7A494989891C88B2FFF7F1FC7749F6
:1036C0000988491EC1F30F20FFF7F3FC73494989AC
:1036D000C91C88B2FFF7E4FC70490978491EC8B2DA
:1036E000FFF7E7FC6D498889FFF7DAFC0020FFF758
:1036F000E0FC6A498989491C88B2FFF7D1FC0020A7
:10370000FFF7D7FC65498989891C88B2FFF7C8FC97
:1037100062494988491EC1F30F20FFF7CAFC5F497F
:103720008989C91C88B2FFF7BBFC5C498978491EAE
:10373000C8B2FFF7BEFC55E058494889FFF7B0FC16
:103740000020FFF7B6FC0020FFF7B3FC53490988BF
:10375000491EC1F30F20FFF7ACFC50490978491E00
:10376000C8B2FFF7A6FC4D498889FFF799FC0020F5
:10377000FFF79FFC0020FFF79CFC48494988491E41
:10378000C1F30F20FFF795FC44498978491EC8B260
:10379000FFF78FFC26E0082D1CD2DFE805F00407B8
:1037A0000A0D0F12151844F0300413E044F0100411
:1037B00010E044F020040DE000BF0BE044F03804BA
:1037C00008E044F0280405E044F0180402E044F066
:1037D000080400BF00BF032744F480542146384644
:1037E000FFF779FCF0BD30B504460D46294620466A
:1037F000FFF7A0FCFFF781FC2948008829490880D1
:1038000030BD70B504460D4616462448808849F2FE
:103810004131884205D02148808845F210318842E4
:1038200014D11E494889FFF73BFC2012FFF741FCE9
:10383000E0B2FFF73EFC19498889FFF731FC2812F6
:10384000FFF737FCE8B2FFF734FC93E013488088B9
:1038500045F21051884227D110494889FFF720FCD2
:103860002012FFF726FC0D494989491C88B2FFF751
:1038700017FCE0B2FFF71DFC08498889FFF710FC30
:103880002812FFF716FC05498989491C88B2FFF701
:1038900007FCE8B2FFF70DFC6CE00000603100208F
:1038A0003E0000208000006CFE48808841F66311D5
:1038B000884228D1FB48807920B9FA480088401E08
:1038C000001B84B2F7494889FFF7EAFB2012FFF793
:1038D000F0FBE0B2FFF7EDFB2012FFF7EAFBE0B2EE
:1038E000FFF7E7FBEF498889FFF7DAFB2812FFF7BC
:1038F000E0FBE8B2FFF7DDFB2812FFF7DAFBE8B2E6
:10390000FFF7D7FB36E0E748808846F60401884297
:103910001DD1E4488079012804D1E2480088401E86
:10392000001B84B2DF494889FFF7BAFB2012FFF77A
:10393000C0FBE0B2FFF7BDFBDA498889FFF7B0FBB7
:103940002812FFF7B6FBE8B2FFF7B3FB12E0D54849
:103950008079012804D1D3480088401E001B84B21E
:10396000D04948892146FFF7B6FBCE4988892946C8
:10397000FFF7B1FBCB480089CB4908804FF0D84016
:10398000A0F8806070BD70B52DED048B0446BE209C
:10399000FFF786FB0520FFF78CFB20460BF057FC5A
:1039A00041EC190B9FEDC10B53EC102B0BF062FC9B
:1039B00041EC180B0BF01EFC85B22846FFF779FB93
:1039C0000120FFF776FBFF20FFF773FB0020FFF7D6
:1039D00070FB0020FFF76DFBBDEC048B70BD10B5D4
:1039E0000446002C66D1AF498871F02008804FF45E
:1039F000A07048800846808849F2413188420BD047
:103A0000A848808846F60401884205D0A5488088E9
:103A100045F2103188421AD12C20A24908812A206F
:103A200048812B2088810846808846F60401884218
:103A300005D09C48808845F21031884206D14FF469
:103A4000A070984908804FF4F0704880A1E0954834
:103A5000808845F21051884210D14FF4305091497E
:103A600008814FF4285048814FF42C5088814FF43E
:103A7000F07008804FF4487048808AE08948808858
:103A800041F6631188420DD12C20864908812B20F4
:103A900048812A2088814FF4F07008804FF44870E4
:103AA000488076E022207F4908812020488121201B
:103AB00088816EE001207B4988714FF4A0700880F6
:103AC000F02048800846808849F24131884205D07C
:103AD0007448808845F21031884207D12C20714902
:103AE00008812A2048812B2088813FE06D4880880A
:103AF00046F60401884207D12C206A4908812B2010
:103B000048812A20888131E06648808845F210513A
:103B1000884210D14FF43050624908814FF4285048
:103B200048814FF42C5088814FF4487008804FF43E
:103B3000F07048801AE05B48808841F66311884243
:103B40000DD12C20574908812A2048812B208881BB
:103B50004FF4487008804FF4F070488006E022204F
:103B60005049088121204881202088814D48808843
:103B700046F60401884205D04A48808845F2103153
:103B8000884206D14FF4F070464908804FF4A07087
:103B900048800020FFF7B3FC10BD2DE9F04F86B040
:103BA00004460D469046994604EB0800401E86B236
:103BB00005EB0900401E87B23A48808849F241313E
:103BC000884215D03748808845F2103188420FD09E
:103BD0003448808846F60401884209D0314880790B
:103BE000012826D12F48808841F66311884220D1D0
:103BF0002C494889FFF754FA2012FFF75AFAE0B22D
:103C0000FFF757FA3012FFF754FAF0B2FFF751FA04
:103C100024498889FFF744FA2812FFF74AFAE8B2E4
:103C2000FFF747FA3812FFF744FAF8B2FFF741FA04
:103C3000C1E01C48808841F6631188423DD1194893
:103C40000088A0EB0800001B84B205EB0900401EB1
:103C50001FFA80F913494889FFF722FA2012FFF76B
:103C600028FAE0B2FFF725FA04EB0801491EC1F378
:103C70000F20FFF71EFA04EB0801491EC8B2FFF738
:103C800018FA08498889FFF70BFA2812FFF711FA8A
:103C9000E8B2FFF70EFA4FEA2920FFF70AFA09F017
:103CA000FF0007E0603100207E00006C66666666FB
:103CB00066660440FFF7FDF97DE0FE48808845F226
:103CC0001051884244D1FB494889FFF7E9F9201295
:103CD000FFF7EFF9F7494989491C88B2FFF7E0F986
:103CE000E0B2FFF7E6F9F3494989891C88B2FFF78A
:103CF000D7F93012FFF7DDF9EE494989C91C88B2BE
:103D0000FFF7CEF9F0B2FFF7D4F9EA498889FFF757
:103D1000C7F92812FFF7CDF9E6498989491C88B20D
:103D2000FFF7BEF9E8B2FFF7C4F9E2498989891CB7
:103D300088B2FFF7B5F93812FFF7BBF9DD49898979
:103D4000C91C88B2FFF7ACF9F8B2FFF7B2F932E05C
:103D5000D848807901280ED1AA46BB46D5480088AC
:103D6000801B401E80B20190D2480088001B401E7C
:103D700080B2009003E0A246B34601950097502020
:103D800005905120049052200390532002905146F8
:103D90000598FFF7A0F959460498FFF79CF9019997
:103DA0000398FFF798F900990298FFF794F92946CC
:103DB0002046FFF7BFF906B0BDE8F08F70B50446A6
:103DC0000026BC48058840884543BA48808846F6A6
:103DD0000401884216D1B7488079012812D1002009
:103DE000B44988712A2048812B2088810021084607
:103DF000FFF7A0F90120AF4988712B2048812A20C4
:103E0000888103E000210846FFF794F9FFF775F970
:103E1000002602E0A8480480761CAE42FAD370BDAA
:103E200000B5A1B00020209001217A2005F03AF8D9
:103E30000121084605F06EF84FF400401E90012065
:103E40008DF87C0000208DF87E0002208DF87D002A
:103E500001208DF87F001EA9984804F085FD4CF2E2
:103E600033701E9002208DF87C0000208DF87E00BB
:103E700003208DF87D0001208DF87F001EA9904859
:103E800004F072FD4FF680701E9002208DF87C00C9
:103E900000208DF87E0003208DF87D0001208DF834
:103EA0007F001EA9874804F05FFD4FF480501E90EC
:103EB00002208DF87C0000208DF87E0003208DF814
:103EC0007D0001208DF87F001EA97F4804F04CFD85
:103ED0004FF480501E9002208DF87C0000208DF859
:103EE0007E0003208DF87D0001208DF87F001EA943
:103EF000764804F039FD0C220021714804F0BFFD22
:103F00000C2201216E4804F0BAFD0C2204216C48F9
:103F100004F0B5FD0C220521694804F0B0FD0C2227
:103F20000821674804F0ABFD0C220921644804F025
:103F3000A6FD0C220A21624804F0A1FD0C220E21EC
:103F40005F4804F09CFD0C220F215D4804F097FDB2
:103F50000C2207215B4804F092FD0C2208215948ED
:103F600004F08DFD0C220921564804F088FD0C2236
:103F70000A21544804F083FD0C220B21514804F01F
:103F80007EFD0C2211464F4804F079FD0C220D21D4
:103F90004C4804F074FD0C220E214A4804F06FFDD9
:103FA0000C220F21474804F06AFD0C2211464648B6
:103FB00004F065FD0C221146444804F060FD0F201A
:103FC0000890002009903C200A9000200B900C9053
:103FD0000D900E900920019000200290082003907F
:103FE0000020049005900690079006200F90002076
:103FF00010901190102012900020139015901490A2
:10400000169017904FF480501890002019904FF49C
:1040100080401A9000201B9008A81C9001A81D90B9
:104020000FA807F022F80121062007F0A9F8322096
:1040300004F07AFA01210020FFF74DF8322004F055
:1040400073FA0020FFF74EF81A49888008468088E6
:10405000FF280ADB084680884FF6FF71884204D0AB
:1040600014488088B0F5134F7ED1D320FFF718F89D
:10407000FFF729F80F498880FFF725F80D49888058
:10408000FFF721F80B498880084680884FF6FF71BA
:1040900001EA002007498880FFF715F8054989885B
:1040A0000843044988800846808849F241318842A3
:1040B0005AD00DE0603100208000006C0004024006
:1040C000000C0240001002400014024000180240A0
:1040D000BF20FEF7E5FFFEF7F6FFFE498880FEF7FA
:1040E000F2FFFC498880FEF7EEFFFA498880FEF770
:1040F000EAFFF8498880084680884FF6FF7101EA98
:104100000020F4498880FEF7DEFFF24989880843E1
:10411000F04988800846808846F6040188427AD0B3
:10412000D420FEF7BDFFFEF7CEFFEA498880FEF7F8
:10413000CAFFE8498880FEF7C6FFE649888008463E
:1041400080884FF6FF7101EA0020E2498880FEF77F
:10415000BAFFE04989880843DE498880084680889C
:1041600045F21031884200E055E054D04FF45A40F7
:10417000FEF796FFFEF7A7FFD64988804FF45B4015
:10418000FEF78EFFFEF79FFFD249888008468088A1
:104190004FF6FF7101EA0020CE4988804FF45C4061
:1041A000FEF77EFFFEF78FFFCA4989880843C94999
:1041B000888008468088B0F5004F02D145F2105043
:1041C0008880C448808845F21051884223D0A120BD
:1041D000FEF766FFFEF777FFBE498880FEF773FFA4
:1041E000BC498880084680884FF6FF7101EA0020AC
:1041F000B8498880FEF767FFB64989880843B54902
:1042000088800846808845F26171884203D141F672
:104210006310B0498880AF48808849F241318842B4
:1042200011D0AC48808845F2103188420BD0A948A3
:10423000808845F21051884205D0A648808841F612
:10424000631188421DD1A448006820F00F004FF090
:104250002041C1F81C010846D0F81C0120F4706010
:10426000C1F81C010846D0F81C0140F00300C1F859
:104270001C010846D0F81C0140F40070C1F81C0174
:1042800028E09448808846F60401884205D0914889
:1042900080884CF2055188421CD18F48006820F07C
:1042A0000F004FF02041C1F81C010846D0F81C0156
:1042B00020F47060C1F81C010846D0F81C0140F0E1
:1042C0000A00C1F81C010846D0F81C0140F4406007
:1042D000C1F81C017F48818880A009F099FF7D48C2
:1042E000808849F2413188427ED1CF20FEF7D8FE46
:1042F0000020FEF7DEFEC120FEF7DBFE3020FEF7D9
:10430000D8FEED20FEF7CCFE6420FEF7D2FE03209F
:10431000FEF7CFFE1220FEF7CCFE8120FEF7C9FE8D
:10432000E820FEF7BDFE8520FEF7C3FE1020FEF755
:10433000C0FE7A20FEF7BDFECB20FEF7B1FE39208D
:10434000FEF7B7FE2C20FEF7B4FE0020FEF7B1FE0C
:104350003420FEF7AEFE0220FEF7ABFEF720FEF79C
:104360009FFE2020FEF7A5FEEA20FEF799FE002022
:10437000FEF79FFE0020FEF79CFEC020FEF790FE99
:104380001B20FEF796FEC120FEF78AFE0120FEF7F5
:1043900090FEC520FEF784FE3020FEF78AFE302016
:1043A000FEF787FEC720FEF77BFEB720FEF781FEF3
:1043B0003620FEF775FE4820FEF77BFE3A20FEF71A
:1043C0006FFE5520FEF775FEB120FEF769FE002056
:1043D000FEF76FFE1A20FEF76CFEB620FEF760FEB9
:1043E0000A20FEF766FE00E0A5E0A220FEF761FECF
:1043F000F220FEF755FE0020FEF75BFE2620FEF7BA
:104400004FFE0120FEF755FEE020FEF749FE0F208B
:10441000FEF74FFE2A20FEF74CFE2820FEF749FE4D
:104420000820FEF746FE0E20FEF743FE0820FEF7AA
:1044300040FE5420FEF73DFEA920FEF73AFE432041
:10444000FEF737FE0A20FEF734FE0F20FEF731FE9E
:104450000020FEF72EFE0020FEF72BFE0020FEF7C8
:1044600028FE0020FEF725FEE120FEF719FE0020C1
:10447000FEF71FFE1520FEF71CFE1720FEF719FEA3
:104480000720FEF716FE1120FEF713FE0620FEF7AA
:1044900010FE2B20FEF70DFE5620FEF70AFE3C20F4
:1044A000FEF707FE0520FEF704FE1020FEF701FED2
:1044B0000F20FEF7FEFD3F20FEF7FBFD3F20FEF73D
:1044C000F8FD0F20FEF7F5FD2B20FEF7E9FD00209B
:1044D0000CE00000603100201C0100A0204C43448F
:1044E0002049443A25780D0A00000000FEF7E1FD5E
:1044F0000020FEF7DEFD0120FEF7DBFD3F20FEF78A
:10450000D8FD2A20FEF7CCFD0020FEF7D2FD0020CA
:10451000FEF7CFFD0020FEF7CCFDEF20FEF7C9FD32
:104520001120FEF7BDFD782003F0FEFF2920FEF7E5
:10453000B7FD03F01DB9FE48808846F604018842A5
:104540007ED11120FEF7ACFD142003F0EDFFD0204A
:10455000FEF7A6FD0720FEF7ACFD4220FEF7A9FD01
:104560001D20FEF7A6FDD120FEF79AFD0020FEF7E4
:10457000A0FD1A20FEF79DFD0920FEF79AFDD2202E
:10458000FEF78EFD0120FEF794FD2220FEF791FD3F
:10459000C020FEF785FD1020FEF78BFD3B20FEF7C7
:1045A00088FD0020FEF785FD0220FEF782FD112028
:1045B000FEF77FFDC520FEF773FD0320FEF779FDB2
:1045C000C820FEF76DFD0020FEF773FD2520FEF7E5
:1045D00070FD2120FEF76DFD0520FEF76AFD00202D
:1045E000FEF767FD0A20FEF764FD6520FEF761FD1A
:1045F0002520FEF75EFD7720FEF75BFD5020FEF7DD
:1046000058FD0F20FEF755FD0020FEF752FDF82063
:10461000FEF746FD0120FEF74CFDFE20FEF740FDB3
:104620000020FEF746FD0220FEF743FD2020FEF7A6
:1046300037FD3620FEF734FD0820FEF73AFD00E096
:104640002AE03A20FEF72CFD5520FEF732FD2B2004
:10465000FEF726FD0020FEF72CFD0020FEF729FDC9
:104660000120FEF726FD3F20FEF723FD2A20FEF75E
:1046700017FD0020FEF71DFD0020FEF71AFD0120AA
:10468000FEF717FDDF20FEF714FD782003F04CFF46
:104690002920FEF705FD4CE7A548808845F210313A
:1046A000884240F07C87ED20FEF7FAFC0120FEF7FF
:1046B00000FDFE20FEF7FDFCEE20FEF7F1FCDE2003
:1046C000FEF7F7FC2120FEF7F4FCF120FEF7E8FCF2
:1046D0000120FEF7EEFCDF20FEF7E2FC1020FEF7E3
:1046E000E8FCC420FEF7DCFC8F20FEF7E2FCC620CD
:1046F000FEF7D6FC0020FEF7DCFCE220FEF7D9FC3A
:10470000E220FEF7D6FCE220FEF7D3FCBF20FEF746
:10471000C7FCAA20FEF7CDFCB020FEF7C1FC0D209F
:10472000FEF7C7FC0020FEF7C4FC0D20FEF7C1FC1D
:104730000020FEF7BEFC1120FEF7BBFC0020FEF7B8
:10474000B8FC1920FEF7B5FC0020FEF7B2FC2120D2
:10475000FEF7AFFC0020FEF7ACFC2D20FEF7A9FC15
:104760000020FEF7A6FC3D20FEF7A3FC0020FEF78C
:10477000A0FC5D20FEF79DFC0020FEF79AFC5D206A
:10478000FEF797FC0020FEF794FCB120FEF788FCB2
:104790008020FEF78EFC0020FEF78BFC8B20FEF7BE
:1047A00088FC0020FEF785FC9620FEF782FC0020A6
:1047B000FEF77FFCB220FEF773FC0020FEF779FCC9
:1047C0000020FEF776FC0220FEF773FC0020FEF7C7
:1047D00070FC0320FEF76DFC0020FEF76AFCB3209E
:1047E000FEF75EFC0020FEF764FC0020FEF761FC93
:1047F0000020FEF75EFC0020FEF75BFC0020FEF7C9
:1048000058FC0020FEF755FC0020FEF752FC00206B
:10481000FEF74FFC0020FEF74CFC0020FEF749FCA1
:104820000020FEF746FC0020FEF743FC0020FEF7C8
:1048300040FC0020FEF73DFC0020FEF73AFC002083
:10484000FEF737FC0020FEF734FC0020FEF731FCB9
:104850000020FEF72EFC0020FEF72BFC0020FEF7C8
:1048600028FC0020FEF725FC0020FEF722FC00209B
:10487000FEF71FFCB420FEF713FC8B20FEF719FC9B
:104880000020FEF716FC9620FEF713FC0020FEF732
:1048900010FCA120FEF70DFC0020FEF70AFCB5205D
:1048A000FEF7FEFB0220FEF704FC0020FEF701FCF1
:1048B0000320FEF7FEFB0020FEF7FBFB0420FEF7C3
:1048C000F8FB0020FEF7F5FBB620FEF7E9FB002021
:1048D000FEF7EFFB0020FEF7ECFBB720FEF7E0FB56
:1048E0000020FEF7E6FB0020FEF7E3FB3F20FEF78B
:1048F000E0FB0020FEF7DDFB5E20FEF7DAFB002088
:10490000FEF7D7FB6420FEF7D4FB0020FEF7D1FBB7
:104910008C20FEF7CEFB0020FEF7CBFBAC20FEF791
:10492000C8FB0020FEF7C5FBDC20FEF7C2FB01E060
:10493000603100200020FEF7BCFB7020FEF7B9FBC1
:104940000020FEF7B6FB9020FEF7B3FB0020FEF739
:10495000B0FBEB20FEF7ADFB0020FEF7AAFBDC204E
:10496000FEF7A7FB0020FEF7A4FBB820FEF798FB9C
:104970000020FEF79EFB0020FEF79BFB0020FEF7C9
:1049800098FB0020FEF795FB0020FEF792FB00202D
:10499000FEF78FFB0020FEF78CFB0020FEF789FB63
:1049A000BA20FEF77DFB2420FEF783FB0020FEF7F4
:1049B00080FB0020FEF77DFB0020FEF77AFBC12084
:1049C000FEF76EFB2020FEF774FB0020FEF771FB64
:1049D0005420FEF76EFB0020FEF76BFBFF20FEF776
:1049E00068FB0020FEF765FBC220FEF759FB0A209A
:1049F000FEF75FFB0020FEF75CFB0420FEF759FB8F
:104A00000020FEF756FBC320FEF74AFB3C20FEF7D2
:104A100050FB0020FEF74DFB3A20FEF74AFB00203A
:104A2000FEF747FB3920FEF744FB0020FEF741FB71
:104A30003720FEF73EFB0020FEF73BFB3C20FEF755
:104A400038FB0020FEF735FB3620FEF732FB002056
:104A5000FEF72FFB3220FEF72CFB0020FEF729FB90
:104A60002F20FEF726FB0020FEF723FB2C20FEF76D
:104A700020FB0020FEF71DFB2920FEF71AFB00207B
:104A8000FEF717FB2620FEF714FB0020FEF711FBB4
:104A90002420FEF70EFB0020FEF70BFB2420FEF780
:104AA00008FB0020FEF705FB2320FEF702FB002099
:104AB000FEF7FFFA3C20FEF7FCFA0020FEF7F9FAB9
:104AC0003620FEF7F6FA0020FEF7F3FA3220FEF762
:104AD000F0FA0020FEF7EDFA2F20FEF7EAFA0020A8
:104AE000FEF7E7FA2C20FEF7E4FA0020FEF7E1FAE1
:104AF0002920FEF7DEFA0020FEF7DBFA2620FEF77B
:104B0000D8FA0020FEF7D5FA2420FEF7D2FA0020CA
:104B1000FEF7CFFA2420FEF7CCFA0020FEF7C9FA00
:104B20002320FEF7C6FA0020FEF7C3FAC420FEF7E2
:104B3000B7FA6220FEF7BDFA0020FEF7BAFA0520A8
:104B4000FEF7B7FA0020FEF7B4FA8420FEF7B1FAB8
:104B50000020FEF7AEFAF020FEF7ABFA0020FEF7D9
:104B6000A8FA1820FEF7A5FA0020FEF7A2FAA42062
:104B7000FEF79FFA0020FEF79CFA1820FEF799FA3C
:104B80000020FEF796FA5020FEF793FA0020FEF779
:104B900090FA0C20FEF78DFA0020FEF78AFA172013
:104BA000FEF787FA0020FEF784FA9520FEF781FAD7
:104BB0000020FEF77EFAF320FEF77BFA0020FEF7D6
:104BC00078FAE620FEF775FA0020FEF772FAC520A3
:104BD000FEF766FA3220FEF76CFA0020FEF769FA5B
:104BE0004420FEF766FA0020FEF763FA6520FEF720
:104BF00060FA0020FEF75DFA7620FEF75AFA0020F0
:104C0000FEF757FA8820FEF754FA0020FEF751FA13
:104C1000C620FEF745FA2020FEF74BFA0020FEF7EB
:104C200048FA1720FEF745FA0020FEF742FA012065
:104C3000FEF73FFA0020FEF73CFAC720FEF730FAF5
:104C40000020FEF736FA0020FEF733FA0020FEF7C8
:104C500030FA0020FEF72DFAC820FEF721FA0020D6
:104C6000FEF727FA0020FEF724FA0020FEF721FACB
:104C70000020FEF71EFAC920FEF712FA0020FEF708
:104C800018FA0020FEF715FA0020FEF712FA0020AD
:104C9000FEF70FFA0020FEF70CFA0020FEF709FAE3
:104CA0000020FEF706FA0020FEF703FA0020FEF7C8
:104CB00000FA0020FEF7FDF90020FEF7FAF90020C7
:104CC000FEF7F7F90020FEF7F4F90020FEF7F1F9FE
:104CD0000020FEF7EEF90020FEF7EBF9E020FEF7EA
:104CE000DFF91620FEF7E5F90020FEF7E2F91C20B7
:104CF000FEF7DFF90020FEF7DCF92120FEF7D9F9F5
:104D00000020FEF7D6F93620FEF7D3F90020FEF793
:104D1000D0F94620FEF7CDF90020FEF7CAF952205F
:104D2000FEF7C7F90020FEF7C4F96420FEF7C1F9C9
:104D30000020FEF7BEF97A20FEF7BBF90020FEF74F
:104D4000B8F98B20FEF7B5F90020FEF7B2F99920EB
:104D5000FEF7AFF90020FEF7ACF9A820FEF7A9F99D
:104D60000020FEF7A6F9B920FEF7A3F90020FEF710
:104D7000A0F9C420FEF79DF90020FEF79AF9CA2099
:104D8000FEF797F90020FEF794F9D220FEF791F98B
:104D90000020FEF78EF9D920FEF78BF90020FEF7F0
:104DA00088F9E020FEF785F90020FEF782F9F3206C
:104DB000FEF77FF90020FEF77CF9E120FEF770F99D
:104DC0001620FEF776F90020FEF773F91C20FEF797
:104DD00070F90020FEF76DF92220FEF76AF9002035
:104DE000FEF767F93620FEF764F90020FEF761F957
:104DF0004520FEF75EF90020FEF75BF95220FEF732
:104E000058F90020FEF755F96420FEF752F900200A
:104E1000FEF74FF97A20FEF74CF90020FEF749F92A
:104E20008B20FEF746F90020FEF743F99920FEF7A4
:104E300040F90020FEF73DF9A820FEF73AF90020DE
:104E4000FEF737F9B920FEF734F90020FEF731F903
:104E5000C420FEF72EF90020FEF72BF9CA20FEF73A
:104E600028F90020FEF725F9D220FEF722F90020CC
:104E7000FEF71FF9D820FEF71CF90020FEF719F9FC
:104E8000E020FEF716F90020FEF713F9F320FEF7F5
:104E900010F90020FEF70DF9E220FEF701F90520D8
:104EA000FEF707F90020FEF704F90B20FEF701F9E1
:104EB0000020FEF7FEF81B20FEF7FBF80020FEF7AF
:104EC000F8F83420FEF7F5F80020FEF7F2F8442059
:104ED000FEF7EFF80020FEF7ECF84F20FEF7E9F8B8
:104EE0000020FEF7E6F86120FEF7E3F80020FEF769
:104EF000E0F87920FEF7DDF80020FEF7DAF88820E8
:104F0000FEF7D7F80020FEF7D4F89720FEF7D1F887
:104F10000020FEF7CEF8A620FEF7CBF80020FEF723
:104F2000C8F8B720FEF7C5F80020FEF7C2F8C22087
:104F3000FEF7BFF80020FEF7BCF8C720FEF7B9F86F
:104F40000020FEF7B6F8D120FEF7B3F80020FEF7F8
:104F5000B0F8D620FEF7ADF80020FEF7AAF8DD2065
:104F6000FEF7A7F80020FEF7A4F8F320FEF7A1F85B
:104F70000020FEF79EF8E320FEF792F80520FEF7EA
:104F800098F80020FEF795F80A20FEF792F8002026
:104F9000FEF78FF81C20FEF78CF80020FEF789F84A
:104FA0003320FEF786F80020FEF783F84420FEF752
:104FB00080F80020FEF77DF85020FEF77AF80020F8
:104FC000FEF777F86220FEF774F80020FEF771F81C
:104FD0007820FEF76EF80020FEF76BF88820FEF7C9
:104FE00068F80020FEF765F89720FEF762F80020C9
:104FF000FEF75FF8A620FEF75CF80020FEF759F8F0
:10500000B720FEF756F80020FEF753F8C220FEF74F
:1050100050F80020FEF74DF8C720FEF74AF80020B0
:10502000FEF747F8D120FEF744F80020FEF741F8DC
:10503000D520FEF73EF80020FEF73BF8DD20FEF716
:1050400038F80020FEF735F8F320FEF732F800209C
:10505000FEF72FF8E420FEF723F80120FEF729F8E9
:105060000020FEF726F80120FEF723F80020FEF7C7
:1050700020F80220FEF71DF80020FEF71AF82A207B
:10508000FEF717F80020FEF714F83C20FEF711F8A1
:105090000020FEF70EF84B20FEF70BF80020FEF77D
:1050A00008F85D20FEF705F80020FEF702F87420EE
:1050B000FDF7FFFF0020FDF7FCFF8420FDF7F9FF5F
:1050C0000020FDF7F6FF9320FDF7F3FF0020FDF72A
:1050D000F0FFA220FDF7EDFF0020FDF7EAFFB3206F
:1050E000FDF7E7FF0020FDF7E4FFBE20FDF7E1FF3D
:1050F0000020FDF7DEFFC420FDF7DBFF0020FDF7F9
:10510000D8FFCD20FDF7D5FF0020FDF7D2FFD3203B
:10511000FDF7CFFF0020FDF7CCFFDD20FDF7C9FF35
:105120000020FDF7C6FFF320FDF7C3FF0020FDF7C9
:10513000C0FFE520FDF7B4FF0020FDF7BAFF002017
:10514000FDF7B7FF0020FDF7B4FF0020FDF7B1FF2A
:105150000220FDF7AEFF0020FDF7ABFF2920FDF791
:10516000A8FF0020FDF7A5FF3C20FDF7A2FF0020CF
:10517000FDF79FFF4B20FDF79CFF0020FDF799FFF7
:105180005D20FDF796FF0020FDF793FF7420FDF7EB
:1051900090FF0020FDF78DFF8420FDF78AFF00209F
:1051A000FDF787FF9320FDF784FF0020FDF781FFC7
:1051B000A220FDF77EFF0020FDF77BFFB320FDF767
:1051C00078FF0020FDF775FFBE20FDF772FF00207D
:1051D000FDF76FFFC420FDF76CFF0020FDF769FFAE
:1051E000CD20FDF766FF0020FDF763FFD320FDF71C
:1051F00060FF0020FDF75DFFDC20FDF75AFF002077
:10520000FDF757FFF320FDF754FF0020FDF751FF96
:10521000E620FDF745FF1120FDF74BFF0020FDF7CD
:1052200048FF3420FDF745FF0020FDF742FF5620E0
:10523000FDF73FFF0020FDF73CFF7620FDF739FF2B
:105240000020FDF736FF7720FDF733FF0020FDF744
:1052500030FF6620FDF72DFF0020FDF72AFF882094
:10526000FDF727FF0020FDF724FF9920FDF721FF20
:105270000020FDF71EFFBB20FDF71BFF0020FDF700
:1052800018FF9920FDF715FF0020FDF712FF66209B
:10529000FDF70FFF0020FDF70CFF5520FDF709FF7C
:1052A0000020FDF706FF5520FDF703FF0020FDF766
:1052B00000FF4520FDF7FDFE0020FDF7FAFE43202C
:1052C000FDF7F7FE0020FDF7F4FE4420FDF7F1FEA8
:1052D0000020FDF7EEFEE720FDF7E2FE3220FDF7AD
:1052E000E8FE0020FDF7E5FE5520FDF7E2FE002078
:1052F000FDF7DFFE7620FDF7DCFE0020FDF7D9FE8E
:105300006620FDF7D6FE0020FDF7D3FE6720FDF7EF
:10531000D0FE0020FDF7CDFE6720FDF7CAFE00207D
:10532000FDF7C7FE8720FDF7C4FE0020FDF7C1FE94
:105330009920FDF7BEFE0020FDF7BBFEBB20FDF768
:10534000B8FE0020FDF7B5FE9920FDF7B2FE002063
:10535000FDF7AFFE7720FDF7ACFE0020FDF7A9FEBC
:105360004420FDF7A6FE0020FDF7A3FE5620FDF722
:10537000A0FE0020FDF79DFE2320FDF79AFE0020F1
:10538000FDF797FE3320FDF794FE0020FDF791FE18
:105390004520FDF78EFE0020FDF78BFEE820FDF78F
:1053A0007FFE0020FDF785FE0020FDF782FE99209C
:1053B000FDF77FFE0020FDF77CFE8720FDF779FEDC
:1053C0000020FDF776FE8820FDF773FE0020FDF734
:1053D00070FE7720FDF76DFE0020FDF76AFE662067
:1053E000FDF767FE0020FDF764FE8820FDF761FEF3
:1053F0000020FDF75EFEAA20FDF75BFE0020FDF712
:1054000058FEBB20FDF755FE0020FDF752FE992007
:10541000FDF74FFE0020FDF74CFE6620FDF749FE2C
:105420000020FDF746FE5520FDF743FE0020FDF766
:1054300040FE5520FDF73DFE0020FDF73AFE4420DA
:10544000FDF737FE0020FDF734FE4420FDF731FE66
:105450000020FDF72EFE5520FDF72BFE0020FDF766
:1054600028FEE920FDF71CFEAA20FDF722FE002001
:10547000FDF71FFE0020FDF71CFE0020FDF719FEC2
:105480000020FDF70DFEAA20FDF713FECF20FDF74B
:1054900007FE0020FDF70DFE0020FDF70AFE0020AC
:1054A000FDF707FE0020FDF704FE0020FDF701FEDA
:1054B0000020FDF7FEFD0020FDF7FBFD0020FDF7BD
:1054C000F8FD0020FDF7F5FD0020FDF7F2FD0020BE
:1054D000FDF7EFFD0020FDF7ECFD0020FDF7E9FDF5
:1054E0000020FDF7E6FD0020FDF7E3FD0020FDF7BD
:1054F000E0FD0020FDF7DDFDF020FDF7D1FD0020EF
:10550000FDF7D7FD5020FDF7D4FD0020FDF7D1FDBC
:105510000020FDF7CEFD0020FDF7CBFDF320FDF7C9
:10552000BFFD0020FDF7C5FDF920FDF7B9FD062000
:10553000FDF7BFFD1020FDF7BCFD2920FDF7B9FDEB
:105540000020FDF7B6FD3A20FDF7AAFD5520FDF736
:10555000B0FD1120FDF7A4FD642002F0E5FF292035
:10556000FDF79EFD3520FDF79BFD0020FDF7A1FD19
:105570005120FDF795FDFF20FDF79BFD5320FDF722
:105580008FFD2C20FDF795FD5520FDF789FD82202C
:10559000FDF78FFD2C20FDF783FD02F0E9B8FE48F2
:1055A000808845F2105188427ED155214FF47040D9
:1055B000FDF791FDAA214FF20100FDF78CFD52216C
:1055C0004FF20200FDF787FD08214FF20300FDF7BF
:1055D00082FD01214FF20400FDF77DFD0D214FF406
:1055E0003040FDF778FD0D214BF20100FDF773FD12
:1055F0000D214BF20200FDF76EFD34214FF43640D1
:10560000FDF769FD34214BF20160FDF764FD3421A3
:105610004BF20260FDF75FFD0D214FF43140FDF7C5
:105620005AFD0D214BF20110FDF755FD0D214BF2F6
:105630000210FDF750FD34214FF43740FDF74BFDCC
:1056400034214BF20170FDF746FD34214BF202701C
:10565000FDF741FD00214FF43240FDF73CFD0021F4
:105660004BF20120FDF737FD00214BF20220FDF740
:1056700032FD24214FF43840FDF72DFD24214BF657
:105680000100FDF728FD24214BF60200FDF723FD64
:1056900001214FF43F40FDF71EFD0F214FF4334031
:1056A000FDF719FD0F2100E0FEE34BF20130FDF79D
:1056B00012FD0F214BF20230FDF70DFD34214FF4A6
:1056C0003940FDF708FD34214BF60110FDF703FDCD
:1056D00034214BF60210FDF7FEFC08214FF4354053
:1056E000FDF7F9FC08214BF20150FDF7F4FC08210D
:1056F0004BF20250FDF7EFFC03214FF44240FDF75F
:10570000EAFC24214FF43A40FDF7E5FC24214BF656
:105710000120FDF7E0FC24214BF60220FDF7DBFC25
:1057200000214FF43C40FDF7D6FC78214BF60140B8
:10573000FDF7D1FC00214BF60240FDF7CCFC002127
:105740004FF43D40FDF7C7FC78214BF60150FDF7C3
:10575000C2FC00214BF60250FDF7BDFC00214FF4C6
:105760003E40FDF7B8FC64214BF60160FDF7B3FC49
:1057700000214FF45140FDF7AEFC33214DF20110F2
:10578000FDF7A9FC00214DF20210FDF7A4FC342125
:105790004DF20310FDF79FFC00214DF20410FDF7C0
:1057A0009AFC3A214DF20510FDF795FC00214DF2CF
:1057B0000610FDF790FC4A214DF20710FDF78BFC17
:1057C00000214DF20810FDF786FC5C214DF2091016
:1057D000FDF781FC00214DF20A10FDF77CFC8121D0
:1057E0004DF20B10FDF777FC00214DF20C10FDF788
:1057F00072FCA6214DF20D10FDF76DFC00214DF25B
:105800000E10FDF768FCE5214DF20F10FDF763FC6B
:1058100001214DF21010FDF75EFC13214DF2111025
:10582000FDF759FC01214DF21210FDF754FC5421F3
:105830004DF21310FDF74FFC01214DF21410FDF74E
:105840004AFC82214DF21510FDF745FC01214DF275
:105850001610FDF740FCCA214DF21710FDF73BFC76
:1058600002214DF21810FDF736FC00214DF21910FF
:10587000FDF731FC02214DF21A10FDF72CFC01213D
:105880004DF21B10FDF727FC02214DF21C10FDF715
:1058900022FC34214DF21D10FDF71DFC02214DF2BA
:1058A0001E10FDF718FC67214DF21F10FDF713FCC9
:1058B00002214DF22010FDF70EFC84214DF2211043
:1058C000FDF709FC02214DF22210FDF704FCA42192
:1058D0004DF22310FDF7FFFB02214DF22410FDF7DE
:1058E000FAFBB7214DF22510FDF7F5FB02214DF231
:1058F0002610FDF7F0FBCF214DF22710FDF7EBFB53
:1059000002214DF22810FDF7E6FBDE214DF22910B1
:10591000FDF7E1FB02214DF22A10FDF7DCFBF2213D
:105920004DF22B10FDF7D7FB02214DF22C10FDF7A5
:10593000D2FBFE214DF22D10FDF7CDFB03214DF2E0
:105940002E10FDF7C8FB10214DF22F10FDF7C3FB01
:1059500003214DF23010FDF7BEFB33214DF2311023
:10596000FDF7B9FB03214DF23210FDF7B4FB6D21B9
:105970004DF23310FDF7AFFB00214FF45240FDF71D
:10598000AAFB33214DF20120FDF7A5FB00214DF2CA
:105990000220FDF7A0FB01E06031002034214DF230
:1059A0000320FDF798FB00214DF20420FDF793FB47
:1059B0003A214DF20520FDF78EFB00214DF2062025
:1059C000FDF789FB4A214DF20720FDF784FB0021FA
:1059D0004DF20820FDF77FFB5C214DF20920FDF719
:1059E0007AFB00214DF20A20FDF775FB81214DF273
:1059F0000B20FDF770FB00214DF20C20FDF76BFB37
:105A0000A6214DF20D20FDF766FB00214DF20E2080
:105A1000FDF761FBE5214DF20F20FDF75CFB012155
:105A20004DF21020FDF757FB13214DF21120FDF729
:105A300052FB01214DF21220FDF74DFB54214DF296
:105A40001320FDF748FB01214DF21420FDF743FB25
:105A500082214DF21520FDF73EFB01214DF216206B
:105A6000FDF739FBCA214DF21720FDF734FB022167
:105A70004DF21820FDF72FFB00214DF21920FDF704
:105A80002AFB02214DF21A20FDF725FB01214DF2E0
:105A90001B20FDF720FB02214DF21C20FDF71BFB14
:105AA00034214DF21D20FDF716FB02214DF21E2080
:105AB000FDF711FB67214DF21F20FDF70CFB0221C2
:105AC0004DF22020FDF707FB84214DF22120FDF748
:105AD00002FB02214DF22220FDF7FDFAA4214DF236
